{"src/contracts/BlockchainIdSystem.sol":{"BlockchainIdSystem":{"abi":[{"inputs":[{"internalType":"address","name":"defaultAdmin","type":"address"},{"internalType":"string","name":"_baseURI","type":"string"}],"stateMutability":"nonpayable","type":"constructor"},{"inputs":[],"name":"AccessControlBadConfirmation","type":"error"},{"inputs":[{"internalType":"address","name":"account","type":"address"},{"internalType":"bytes32","name":"neededRole","type":"bytes32"}],"name":"AccessControlUnauthorizedAccount","type":"error"},{"anonymous":false,"inputs":[{"indexed":true,"internalType":"bytes32","name":"role","type":"bytes32"},{"indexed":true,"internalType":"bytes32","name":"previousAdminRole","type":"bytes32"},{"indexed":true,"internalType":"bytes32","name":"newAdminRole","type":"bytes32"}],"name":"RoleAdminChanged","type":"event"},{"anonymous":false,"inputs":[{"indexed":true,"internalType":"bytes32","name":"role","type":"bytes32"},{"indexed":true,"internalType":"address","name":"account","type":"address"},{"indexed":true,"internalType":"address","name":"sender","type":"address"}],"name":"RoleGranted","type":"event"},{"anonymous":false,"inputs":[{"indexed":true,"internalType":"bytes32","name":"role","type":"bytes32"},{"indexed":true,"internalType":"address","name":"account","type":"address"},{"indexed":true,"internalType":"address","name":"sender","type":"address"}],"name":"RoleRevoked","type":"event"},{"inputs":[],"name":"DEFAULT_ADMIN_ROLE","outputs":[{"internalType":"bytes32","name":"","type":"bytes32"}],"stateMutability":"view","type":"function"},{"inputs":[],"name":"ISSUER_ROLE","outputs":[{"internalType":"bytes32","name":"","type":"bytes32"}],"stateMutability":"view","type":"function"},{"inputs":[],"name":"VERIFIER_ROLE","outputs":[{"internalType":"bytes32","name":"","type":"bytes32"}],"stateMutability":"view","type":"function"},{"inputs":[],"name":"baseURI","outputs":[{"internalType":"string","name":"","type":"string"}],"stateMutability":"view","type":"function"},{"inputs":[{"internalType":"string","name":"searchString","type":"string"}],"name":"checkIsValidDocumentId","outputs":[{"internalType":"bool","name":"","type":"bool"}],"stateMutability":"view","type":"function"},{"inputs":[{"internalType":"address","name":"account","type":"address"}],"name":"checkisVerifier","outputs":[{"internalType":"bool","name":"","type":"bool"}],"stateMutability":"view","type":"function"},{"inputs":[{"internalType":"string","name":"","type":"string"}],"name":"documentsArray","outputs":[{"internalType":"string","name":"","type":"string"}],"stateMutability":"view","type":"function"},{"inputs":[{"internalType":"string","name":"documentHash","type":"string"}],"name":"getDocument","outputs":[{"internalType":"string","name":"","type":"string"}],"stateMutability":"view","type":"function"},{"inputs":[{"internalType":"bytes32","name":"role","type":"bytes32"}],"name":"getRoleAdmin","outputs":[{"internalType":"bytes32","name":"","type":"bytes32"}],"stateMutability":"view","type":"function"},{"inputs":[{"internalType":"address","name":"account","type":"address"}],"name":"grantIssuerRole","outputs":[],"stateMutability":"nonpayable","type":"function"},{"inputs":[{"internalType":"bytes32","name":"role","type":"bytes32"},{"internalType":"address","name":"account","type":"address"}],"name":"grantRole","outputs":[],"stateMutability":"nonpayable","type":"function"},{"inputs":[{"internalType":"address","name":"account","type":"address"}],"name":"grantVerifierRole","outputs":[],"stateMutability":"nonpayable","type":"function"},{"inputs":[{"internalType":"bytes32","name":"role","type":"bytes32"},{"internalType":"address","name":"account","type":"address"}],"name":"hasRole","outputs":[{"internalType":"bool","name":"","type":"bool"}],"stateMutability":"view","type":"function"},{"inputs":[{"internalType":"string","name":"documentHash","type":"string"},{"internalType":"string","name":"imageHash","type":"string"}],"name":"registerDocument","outputs":[],"stateMutability":"nonpayable","type":"function"},{"inputs":[{"internalType":"bytes32","name":"role","type":"bytes32"},{"internalType":"address","name":"callerConfirmation","type":"address"}],"name":"renounceRole","outputs":[],"stateMutability":"nonpayable","type":"function"},{"inputs":[{"internalType":"address","name":"account","type":"address"}],"name":"revokeIssuerRole","outputs":[],"stateMutability":"nonpayable","type":"function"},{"inputs":[{"internalType":"bytes32","name":"role","type":"bytes32"},{"internalType":"address","name":"account","type":"address"}],"name":"revokeRole","outputs":[],"stateMutability":"nonpayable","type":"function"},{"inputs":[{"internalType":"address","name":"account","type":"address"}],"name":"revokeVerifierRole","outputs":[],"stateMutability":"nonpayable","type":"function"},{"inputs":[{"internalType":"bytes4","name":"interfaceId","type":"bytes4"}],"name":"supportsInterface","outputs":[{"internalType":"bool","name":"","type":"bool"}],"stateMutability":"view","type":"function"}],"evm":{"bytecode":{"linkReferences":{},"object":"60806040523480156200001157600080fd5b5060405162001ecb38038062001ecb8339818101604052810190620000379190620003d4565b6200004c6000801b836200006760201b60201c565b5080600190816200005e919062000685565b5050506200076c565b60006200007b83836200016a60201b60201c565b6200015f57600160008085815260200190815260200160002060000160008473ffffffffffffffffffffffffffffffffffffffff1673ffffffffffffffffffffffffffffffffffffffff16815260200190815260200160002060006101000a81548160ff021916908315150217905550620000fb620001d460201b60201c565b73ffffffffffffffffffffffffffffffffffffffff168273ffffffffffffffffffffffffffffffffffffffff16847f2f8788117e7eff1d82e926ec794901d17c78024a50270940304540a733656f0d60405160405180910390a46001905062000164565b600090505b92915050565b600080600084815260200190815260200160002060000160008373ffffffffffffffffffffffffffffffffffffffff1673ffffffffffffffffffffffffffffffffffffffff16815260200190815260200160002060009054906101000a900460ff16905092915050565b600033905090565b6000604051905090565b600080fd5b600080fd5b600073ffffffffffffffffffffffffffffffffffffffff82169050919050565b60006200021d82620001f0565b9050919050565b6200022f8162000210565b81146200023b57600080fd5b50565b6000815190506200024f8162000224565b92915050565b600080fd5b600080fd5b6000601f19601f8301169050919050565b7f4e487b7100000000000000000000000000000000000000000000000000000000600052604160045260246000fd5b620002aa826200025f565b810181811067ffffffffffffffff82111715620002cc57620002cb62000270565b5b80604052505050565b6000620002e1620001dc565b9050620002ef82826200029f565b919050565b600067ffffffffffffffff82111562000312576200031162000270565b5b6200031d826200025f565b9050602081019050919050565b60005b838110156200034a5780820151818401526020810190506200032d565b60008484015250505050565b60006200036d6200036784620002f4565b620002d5565b9050828152602081018484840111156200038c576200038b6200025a565b5b620003998482856200032a565b509392505050565b600082601f830112620003b957620003b862000255565b5b8151620003cb84826020860162000356565b91505092915050565b60008060408385031215620003ee57620003ed620001e6565b5b6000620003fe858286016200023e565b925050602083015167ffffffffffffffff811115620004225762000421620001eb565b5b6200043085828601620003a1565b9150509250929050565b600081519050919050565b7f4e487b7100000000000000000000000000000000000000000000000000000000600052602260045260246000fd5b600060028204905060018216806200048d57607f821691505b602082108103620004a357620004a262000445565b5b50919050565b60008190508160005260206000209050919050565b60006020601f8301049050919050565b600082821b905092915050565b6000600883026200050d7fffffffffffffffffffffffffffffffffffffffffffffffffffffffffffffffff82620004ce565b620005198683620004ce565b95508019841693508086168417925050509392505050565b6000819050919050565b6000819050919050565b600062000566620005606200055a8462000531565b6200053b565b62000531565b9050919050565b6000819050919050565b620005828362000545565b6200059a62000591826200056d565b848454620004db565b825550505050565b600090565b620005b1620005a2565b620005be81848462000577565b505050565b5b81811015620005e657620005da600082620005a7565b600181019050620005c4565b5050565b601f8211156200063557620005ff81620004a9565b6200060a84620004be565b810160208510156200061a578190505b620006326200062985620004be565b830182620005c3565b50505b505050565b600082821c905092915050565b60006200065a600019846008026200063a565b1980831691505092915050565b600062000675838362000647565b9150826002028217905092915050565b62000690826200043a565b67ffffffffffffffff811115620006ac57620006ab62000270565b5b620006b8825462000474565b620006c5828285620005ea565b600060209050601f831160018114620006fd5760008415620006e8578287015190505b620006f4858262000667565b86555062000764565b601f1984166200070d86620004a9565b60005b82811015620007375784890151825560018201915060208501945060208101905062000710565b8683101562000757578489015162000753601f89168262000647565b8355505b6001600288020188555050505b505050505050565b61174f806200077c6000396000f3fe608060405234801561001057600080fd5b50600436106101215760003560e01c80636c0360eb116100ad578063a3669aef11610071578063a3669aef1461032c578063a5c8d38d14610348578063ce45a82314610364578063d547741f14610394578063e7705db6146103b057610121565b80636c0360eb146102725780637ccb6a641461029057806382aefa24146102c057806391d14854146102de578063a217fddf1461030e57610121565b80631c49ea91116100f45780631c49ea91146101be578063248a9ca3146101da5780632f2ff15d1461020a57806336568abe146102265780633f5a084d1461024257610121565b806301ffc9a7146101265780630337c06114610156578063140802ee14610172578063151839e51461018e575b600080fd5b610140600480360381019061013b9190610dd9565b6103ce565b60405161014d9190610e21565b60405180910390f35b610170600480360381019061016b9190610e9a565b6103e0565b005b61018c60048036038101906101879190610e9a565b61041b565b005b6101a860048036038101906101a3919061100d565b610456565b6040516101b591906110d5565b60405180910390f35b6101d860048036038101906101d391906110f7565b61050c565b005b6101f460048036038101906101ef91906111a5565b610618565b60405161020191906111e1565b60405180910390f35b610224600480360381019061021f91906111fc565b610637565b005b610240600480360381019061023b91906111fc565b610659565b005b61025c6004803603810190610257919061100d565b6106d4565b6040516102699190610e21565b60405180910390f35b61027a61070a565b60405161028791906110d5565b60405180910390f35b6102aa60048036038101906102a5919061100d565b610798565b6040516102b791906110d5565b60405180910390f35b6102c86108b5565b6040516102d591906111e1565b60405180910390f35b6102f860048036038101906102f391906111fc565b6108d9565b6040516103059190610e21565b60405180910390f35b610316610943565b60405161032391906111e1565b60405180910390f35b61034660048036038101906103419190610e9a565b61094a565b005b610362600480360381019061035d9190610e9a565b610985565b005b61037e60048036038101906103799190610e9a565b6109c0565b60405161038b9190610e21565b60405180910390f35b6103ae60048036038101906103a991906111fc565b6109f3565b005b6103b8610a15565b6040516103c591906111e1565b60405180910390f35b60006103d982610a39565b9050919050565b6000801b6103ed81610ab3565b6104177f0ce23c3e399818cfee81a7ab0880f714e53d7672b08df0fa62f2843416e1ea0983610637565b5050565b6000801b61042881610ab3565b6104527f114e74f6ea3bd819998f78687bfcb11b140da08e9b7d222fa9c1f1ba1f2aa122836109f3565b5050565b600281805160208101820180518482526020830160208501208183528095505050505050600091509050805461048b9061126b565b80601f01602080910402602001604051908101604052809291908181526020018280546104b79061126b565b80156105045780601f106104d957610100808354040283529160200191610504565b820191906000526020600020905b8154815290600101906020018083116104e757829003601f168201915b505050505081565b7f114e74f6ea3bd819998f78687bfcb11b140da08e9b7d222fa9c1f1ba1f2aa12261053681610ab3565b600083511161057a576040517f08c379a00000000000000000000000000000000000000000000000000000000081526004016105719061130e565b60405180910390fd5b600060028460405161058c919061136a565b908152602001604051809103902080546105a59061126b565b9050146105e7576040517f08c379a00000000000000000000000000000000000000000000000000000000081526004016105de906113cd565b60405180910390fd5b816002846040516105f8919061136a565b9081526020016040518091039020908161061291906115a3565b50505050565b6000806000838152602001908152602001600020600101549050919050565b61064082610618565b61064981610ab3565b6106538383610ac7565b50505050565b610661610bb8565b73ffffffffffffffffffffffffffffffffffffffff168173ffffffffffffffffffffffffffffffffffffffff16146106c5576040517f6697b23200000000000000000000000000000000000000000000000000000000815260040160405180910390fd5b6106cf8282610bc0565b505050565b6000806002836040516106e7919061136a565b908152602001604051809103902080546107009061126b565b9050119050919050565b600180546107179061126b565b80601f01602080910402602001604051908101604052809291908181526020018280546107439061126b565b80156107905780601f1061076557610100808354040283529160200191610790565b820191906000526020600020905b81548152906001019060200180831161077357829003601f168201915b505050505081565b606060006002836040516107ac919061136a565b908152602001604051809103902080546107c59061126b565b905011610807576040517f08c379a00000000000000000000000000000000000000000000000000000000081526004016107fe906116c1565b60405180910390fd5b600282604051610817919061136a565b908152602001604051809103902080546108309061126b565b80601f016020809104026020016040519081016040528092919081815260200182805461085c9061126b565b80156108a95780601f1061087e576101008083540402835291602001916108a9565b820191906000526020600020905b81548152906001019060200180831161088c57829003601f168201915b50505050509050919050565b7f114e74f6ea3bd819998f78687bfcb11b140da08e9b7d222fa9c1f1ba1f2aa12281565b600080600084815260200190815260200160002060000160008373ffffffffffffffffffffffffffffffffffffffff1673ffffffffffffffffffffffffffffffffffffffff16815260200190815260200160002060009054906101000a900460ff16905092915050565b6000801b81565b6000801b61095781610ab3565b6109817f0ce23c3e399818cfee81a7ab0880f714e53d7672b08df0fa62f2843416e1ea09836109f3565b5050565b6000801b61099281610ab3565b6109bc7f114e74f6ea3bd819998f78687bfcb11b140da08e9b7d222fa9c1f1ba1f2aa12283610637565b5050565b60006109ec7f0ce23c3e399818cfee81a7ab0880f714e53d7672b08df0fa62f2843416e1ea09836108d9565b9050919050565b6109fc82610618565b610a0581610ab3565b610a0f8383610bc0565b50505050565b7f0ce23c3e399818cfee81a7ab0880f714e53d7672b08df0fa62f2843416e1ea0981565b60007f7965db0b000000000000000000000000000000000000000000000000000000007bffffffffffffffffffffffffffffffffffffffffffffffffffffffff1916827bffffffffffffffffffffffffffffffffffffffffffffffffffffffff19161480610aac5750610aab82610cb2565b5b9050919050565b610ac481610abf610bb8565b610d1c565b50565b6000610ad383836108d9565b610bad57600160008085815260200190815260200160002060000160008473ffffffffffffffffffffffffffffffffffffffff1673ffffffffffffffffffffffffffffffffffffffff16815260200190815260200160002060006101000a81548160ff021916908315150217905550610b4a610bb8565b73ffffffffffffffffffffffffffffffffffffffff168273ffffffffffffffffffffffffffffffffffffffff16847f2f8788117e7eff1d82e926ec794901d17c78024a50270940304540a733656f0d60405160405180910390a460019050610bb2565b600090505b92915050565b600033905090565b6000610bcc83836108d9565b15610ca757600080600085815260200190815260200160002060000160008473ffffffffffffffffffffffffffffffffffffffff1673ffffffffffffffffffffffffffffffffffffffff16815260200190815260200160002060006101000a81548160ff021916908315150217905550610c44610bb8565b73ffffffffffffffffffffffffffffffffffffffff168273ffffffffffffffffffffffffffffffffffffffff16847ff6391f5c32d9c69d2a47ea670b442974b53935d1edc7fd64eb21e047a839171b60405160405180910390a460019050610cac565b600090505b92915050565b60007f01ffc9a7000000000000000000000000000000000000000000000000000000007bffffffffffffffffffffffffffffffffffffffffffffffffffffffff1916827bffffffffffffffffffffffffffffffffffffffffffffffffffffffff1916149050919050565b610d2682826108d9565b610d695780826040517fe2517d3f000000000000000000000000000000000000000000000000000000008152600401610d609291906116f0565b60405180910390fd5b5050565b6000604051905090565b600080fd5b600080fd5b60007fffffffff0000000000000000000000000000000000000000000000000000000082169050919050565b610db681610d81565b8114610dc157600080fd5b50565b600081359050610dd381610dad565b92915050565b600060208284031215610def57610dee610d77565b5b6000610dfd84828501610dc4565b91505092915050565b60008115159050919050565b610e1b81610e06565b82525050565b6000602082019050610e366000830184610e12565b92915050565b600073ffffffffffffffffffffffffffffffffffffffff82169050919050565b6000610e6782610e3c565b9050919050565b610e7781610e5c565b8114610e8257600080fd5b50565b600081359050610e9481610e6e565b92915050565b600060208284031215610eb057610eaf610d77565b5b6000610ebe84828501610e85565b91505092915050565b600080fd5b600080fd5b6000601f19601f8301169050919050565b7f4e487b7100000000000000000000000000000000000000000000000000000000600052604160045260246000fd5b610f1a82610ed1565b810181811067ffffffffffffffff82111715610f3957610f38610ee2565b5b80604052505050565b6000610f4c610d6d565b9050610f588282610f11565b919050565b600067ffffffffffffffff821115610f7857610f77610ee2565b5b610f8182610ed1565b9050602081019050919050565b82818337600083830152505050565b6000610fb0610fab84610f5d565b610f42565b905082815260208101848484011115610fcc57610fcb610ecc565b5b610fd7848285610f8e565b509392505050565b600082601f830112610ff457610ff3610ec7565b5b8135611004848260208601610f9d565b91505092915050565b60006020828403121561102357611022610d77565b5b600082013567ffffffffffffffff81111561104157611040610d7c565b5b61104d84828501610fdf565b91505092915050565b600081519050919050565b600082825260208201905092915050565b60005b83811015611090578082015181840152602081019050611075565b60008484015250505050565b60006110a782611056565b6110b18185611061565b93506110c1818560208601611072565b6110ca81610ed1565b840191505092915050565b600060208201905081810360008301526110ef818461109c565b905092915050565b6000806040838503121561110e5761110d610d77565b5b600083013567ffffffffffffffff81111561112c5761112b610d7c565b5b61113885828601610fdf565b925050602083013567ffffffffffffffff81111561115957611158610d7c565b5b61116585828601610fdf565b9150509250929050565b6000819050919050565b6111828161116f565b811461118d57600080fd5b50565b60008135905061119f81611179565b92915050565b6000602082840312156111bb576111ba610d77565b5b60006111c984828501611190565b91505092915050565b6111db8161116f565b82525050565b60006020820190506111f660008301846111d2565b92915050565b6000806040838503121561121357611212610d77565b5b600061122185828601611190565b925050602061123285828601610e85565b9150509250929050565b7f4e487b7100000000000000000000000000000000000000000000000000000000600052602260045260246000fd5b6000600282049050600182168061128357607f821691505b6020821081036112965761129561123c565b5b50919050565b7f4c65206861736820647520646f63756d656e74206e652070657574207061732060008201527f7265737465722076696465000000000000000000000000000000000000000000602082015250565b60006112f8602b83611061565b91506113038261129c565b604082019050919050565b60006020820190508181036000830152611327816112eb565b9050919050565b600081905092915050565b600061134482611056565b61134e818561132e565b935061135e818560208601611072565b80840191505092915050565b60006113768284611339565b915081905092915050565b7f4c6520646f63756d656e74206578697374650000000000000000000000000000600082015250565b60006113b7601283611061565b91506113c282611381565b602082019050919050565b600060208201905081810360008301526113e6816113aa565b9050919050565b60008190508160005260206000209050919050565b60006020601f8301049050919050565b600082821b905092915050565b60006008830261144f7fffffffffffffffffffffffffffffffffffffffffffffffffffffffffffffffff82611412565b6114598683611412565b95508019841693508086168417925050509392505050565b6000819050919050565b6000819050919050565b60006114a061149b61149684611471565b61147b565b611471565b9050919050565b6000819050919050565b6114ba83611485565b6114ce6114c6826114a7565b84845461141f565b825550505050565b600090565b6114e36114d6565b6114ee8184846114b1565b505050565b5b81811015611512576115076000826114db565b6001810190506114f4565b5050565b601f82111561155757611528816113ed565b61153184611402565b81016020851015611540578190505b61155461154c85611402565b8301826114f3565b50505b505050565b600082821c905092915050565b600061157a6000198460080261155c565b1980831691505092915050565b60006115938383611569565b9150826002028217905092915050565b6115ac82611056565b67ffffffffffffffff8111156115c5576115c4610ee2565b5b6115cf825461126b565b6115da828285611516565b600060209050601f83116001811461160d57600084156115fb578287015190505b6116058582611587565b86555061166d565b601f19841661161b866113ed565b60005b828110156116435784890151825560018201915060208501945060208101905061161e565b86831015611660578489015161165c601f891682611569565b8355505b6001600288020188555050505b505050505050565b7f4c6520646f63756d656e74206e27657869737465207061730000000000000000600082015250565b60006116ab601883611061565b91506116b682611675565b602082019050919050565b600060208201905081810360008301526116da8161169e565b9050919050565b6116ea81610e5c565b82525050565b600060408201905061170560008301856116e1565b61171260208301846111d2565b939250505056fea264697066735822122002a14160bdbee07f7f8b4ef52ac77b9838cb0c6f9e96346af1c5b210315994a764736f6c63430008140033","opcodes":"PUSH1 0x80 PUSH1 0x40 MSTORE CALLVALUE DUP1 ISZERO PUSH3 0x11 JUMPI PUSH1 0x0 DUP1 REVERT JUMPDEST POP PUSH1 0x40 MLOAD PUSH3 0x1ECB CODESIZE SUB DUP1 PUSH3 0x1ECB DUP4 CODECOPY DUP2 DUP2 ADD PUSH1 0x40 MSTORE DUP2 ADD SWAP1 PUSH3 0x37 SWAP2 SWAP1 PUSH3 0x3D4 JUMP JUMPDEST PUSH3 0x4C PUSH1 0x0 DUP1 SHL DUP4 PUSH3 0x67 PUSH1 0x20 SHL PUSH1 0x20 SHR JUMP JUMPDEST POP DUP1 PUSH1 0x1 SWAP1 DUP2 PUSH3 0x5E SWAP2 SWAP1 PUSH3 0x685 JUMP JUMPDEST POP POP POP PUSH3 0x76C JUMP JUMPDEST PUSH1 0x0 PUSH3 0x7B DUP4 DUP4 PUSH3 0x16A PUSH1 0x20 SHL PUSH1 0x20 SHR JUMP JUMPDEST PUSH3 0x15F JUMPI PUSH1 0x1 PUSH1 0x0 DUP1 DUP6 DUP2 MSTORE PUSH1 0x20 ADD SWAP1 DUP2 MSTORE PUSH1 0x20 ADD PUSH1 0x0 KECCAK256 PUSH1 0x0 ADD PUSH1 0x0 DUP5 PUSH20 0xFFFFFFFFFFFFFFFFFFFFFFFFFFFFFFFFFFFFFFFF AND PUSH20 0xFFFFFFFFFFFFFFFFFFFFFFFFFFFFFFFFFFFFFFFF AND DUP2 MSTORE PUSH1 0x20 ADD SWAP1 DUP2 MSTORE PUSH1 0x20 ADD PUSH1 0x0 KECCAK256 PUSH1 0x0 PUSH2 0x100 EXP DUP2 SLOAD DUP2 PUSH1 0xFF MUL NOT AND SWAP1 DUP4 ISZERO ISZERO MUL OR SWAP1 SSTORE POP PUSH3 0xFB PUSH3 0x1D4 PUSH1 0x20 SHL PUSH1 0x20 SHR JUMP JUMPDEST PUSH20 0xFFFFFFFFFFFFFFFFFFFFFFFFFFFFFFFFFFFFFFFF AND DUP3 PUSH20 0xFFFFFFFFFFFFFFFFFFFFFFFFFFFFFFFFFFFFFFFF AND DUP5 PUSH32 0x2F8788117E7EFF1D82E926EC794901D17C78024A50270940304540A733656F0D PUSH1 0x40 MLOAD PUSH1 0x40 MLOAD DUP1 SWAP2 SUB SWAP1 LOG4 PUSH1 0x1 SWAP1 POP PUSH3 0x164 JUMP JUMPDEST PUSH1 0x0 SWAP1 POP JUMPDEST SWAP3 SWAP2 POP POP JUMP JUMPDEST PUSH1 0x0 DUP1 PUSH1 0x0 DUP5 DUP2 MSTORE PUSH1 0x20 ADD SWAP1 DUP2 MSTORE PUSH1 0x20 ADD PUSH1 0x0 KECCAK256 PUSH1 0x0 ADD PUSH1 0x0 DUP4 PUSH20 0xFFFFFFFFFFFFFFFFFFFFFFFFFFFFFFFFFFFFFFFF AND PUSH20 0xFFFFFFFFFFFFFFFFFFFFFFFFFFFFFFFFFFFFFFFF AND DUP2 MSTORE PUSH1 0x20 ADD SWAP1 DUP2 MSTORE PUSH1 0x20 ADD PUSH1 0x0 KECCAK256 PUSH1 0x0 SWAP1 SLOAD SWAP1 PUSH2 0x100 EXP SWAP1 DIV PUSH1 0xFF AND SWAP1 POP SWAP3 SWAP2 POP POP JUMP JUMPDEST PUSH1 0x0 CALLER SWAP1 POP SWAP1 JUMP JUMPDEST PUSH1 0x0 PUSH1 0x40 MLOAD SWAP1 POP SWAP1 JUMP JUMPDEST PUSH1 0x0 DUP1 REVERT JUMPDEST PUSH1 0x0 DUP1 REVERT JUMPDEST PUSH1 0x0 PUSH20 0xFFFFFFFFFFFFFFFFFFFFFFFFFFFFFFFFFFFFFFFF DUP3 AND SWAP1 POP SWAP2 SWAP1 POP JUMP JUMPDEST PUSH1 0x0 PUSH3 0x21D DUP3 PUSH3 0x1F0 JUMP JUMPDEST SWAP1 POP SWAP2 SWAP1 POP JUMP JUMPDEST PUSH3 0x22F DUP2 PUSH3 0x210 JUMP JUMPDEST DUP2 EQ PUSH3 0x23B JUMPI PUSH1 0x0 DUP1 REVERT JUMPDEST POP JUMP JUMPDEST PUSH1 0x0 DUP2 MLOAD SWAP1 POP PUSH3 0x24F DUP2 PUSH3 0x224 JUMP JUMPDEST SWAP3 SWAP2 POP POP JUMP JUMPDEST PUSH1 0x0 DUP1 REVERT JUMPDEST PUSH1 0x0 DUP1 REVERT JUMPDEST PUSH1 0x0 PUSH1 0x1F NOT PUSH1 0x1F DUP4 ADD AND SWAP1 POP SWAP2 SWAP1 POP JUMP JUMPDEST PUSH32 0x4E487B7100000000000000000000000000000000000000000000000000000000 PUSH1 0x0 MSTORE PUSH1 0x41 PUSH1 0x4 MSTORE PUSH1 0x24 PUSH1 0x0 REVERT JUMPDEST PUSH3 0x2AA DUP3 PUSH3 0x25F JUMP JUMPDEST DUP2 ADD DUP2 DUP2 LT PUSH8 0xFFFFFFFFFFFFFFFF DUP3 GT OR ISZERO PUSH3 0x2CC JUMPI PUSH3 0x2CB PUSH3 0x270 JUMP JUMPDEST JUMPDEST DUP1 PUSH1 0x40 MSTORE POP POP POP JUMP JUMPDEST PUSH1 0x0 PUSH3 0x2E1 PUSH3 0x1DC JUMP JUMPDEST SWAP1 POP PUSH3 0x2EF DUP3 DUP3 PUSH3 0x29F JUMP JUMPDEST SWAP2 SWAP1 POP JUMP JUMPDEST PUSH1 0x0 PUSH8 0xFFFFFFFFFFFFFFFF DUP3 GT ISZERO PUSH3 0x312 JUMPI PUSH3 0x311 PUSH3 0x270 JUMP JUMPDEST JUMPDEST PUSH3 0x31D DUP3 PUSH3 0x25F JUMP JUMPDEST SWAP1 POP PUSH1 0x20 DUP2 ADD SWAP1 POP SWAP2 SWAP1 POP JUMP JUMPDEST PUSH1 0x0 JUMPDEST DUP4 DUP2 LT ISZERO PUSH3 0x34A JUMPI DUP1 DUP3 ADD MLOAD DUP2 DUP5 ADD MSTORE PUSH1 0x20 DUP2 ADD SWAP1 POP PUSH3 0x32D JUMP JUMPDEST PUSH1 0x0 DUP5 DUP5 ADD MSTORE POP POP POP POP JUMP JUMPDEST PUSH1 0x0 PUSH3 0x36D PUSH3 0x367 DUP5 PUSH3 0x2F4 JUMP JUMPDEST PUSH3 0x2D5 JUMP JUMPDEST SWAP1 POP DUP3 DUP2 MSTORE PUSH1 0x20 DUP2 ADD DUP5 DUP5 DUP5 ADD GT ISZERO PUSH3 0x38C JUMPI PUSH3 0x38B PUSH3 0x25A JUMP JUMPDEST JUMPDEST PUSH3 0x399 DUP5 DUP3 DUP6 PUSH3 0x32A JUMP JUMPDEST POP SWAP4 SWAP3 POP POP POP JUMP JUMPDEST PUSH1 0x0 DUP3 PUSH1 0x1F DUP4 ADD SLT PUSH3 0x3B9 JUMPI PUSH3 0x3B8 PUSH3 0x255 JUMP JUMPDEST JUMPDEST DUP2 MLOAD PUSH3 0x3CB DUP5 DUP3 PUSH1 0x20 DUP7 ADD PUSH3 0x356 JUMP JUMPDEST SWAP2 POP POP SWAP3 SWAP2 POP POP JUMP JUMPDEST PUSH1 0x0 DUP1 PUSH1 0x40 DUP4 DUP6 SUB SLT ISZERO PUSH3 0x3EE JUMPI PUSH3 0x3ED PUSH3 0x1E6 JUMP JUMPDEST JUMPDEST PUSH1 0x0 PUSH3 0x3FE DUP6 DUP3 DUP7 ADD PUSH3 0x23E JUMP JUMPDEST SWAP3 POP POP PUSH1 0x20 DUP4 ADD MLOAD PUSH8 0xFFFFFFFFFFFFFFFF DUP2 GT ISZERO PUSH3 0x422 JUMPI PUSH3 0x421 PUSH3 0x1EB JUMP JUMPDEST JUMPDEST PUSH3 0x430 DUP6 DUP3 DUP7 ADD PUSH3 0x3A1 JUMP JUMPDEST SWAP2 POP POP SWAP3 POP SWAP3 SWAP1 POP JUMP JUMPDEST PUSH1 0x0 DUP2 MLOAD SWAP1 POP SWAP2 SWAP1 POP JUMP JUMPDEST PUSH32 0x4E487B7100000000000000000000000000000000000000000000000000000000 PUSH1 0x0 MSTORE PUSH1 0x22 PUSH1 0x4 MSTORE PUSH1 0x24 PUSH1 0x0 REVERT JUMPDEST PUSH1 0x0 PUSH1 0x2 DUP3 DIV SWAP1 POP PUSH1 0x1 DUP3 AND DUP1 PUSH3 0x48D JUMPI PUSH1 0x7F DUP3 AND SWAP2 POP JUMPDEST PUSH1 0x20 DUP3 LT DUP2 SUB PUSH3 0x4A3 JUMPI PUSH3 0x4A2 PUSH3 0x445 JUMP JUMPDEST JUMPDEST POP SWAP2 SWAP1 POP JUMP JUMPDEST PUSH1 0x0 DUP2 SWAP1 POP DUP2 PUSH1 0x0 MSTORE PUSH1 0x20 PUSH1 0x0 KECCAK256 SWAP1 POP SWAP2 SWAP1 POP JUMP JUMPDEST PUSH1 0x0 PUSH1 0x20 PUSH1 0x1F DUP4 ADD DIV SWAP1 POP SWAP2 SWAP1 POP JUMP JUMPDEST PUSH1 0x0 DUP3 DUP3 SHL SWAP1 POP SWAP3 SWAP2 POP POP JUMP JUMPDEST PUSH1 0x0 PUSH1 0x8 DUP4 MUL PUSH3 0x50D PUSH32 0xFFFFFFFFFFFFFFFFFFFFFFFFFFFFFFFFFFFFFFFFFFFFFFFFFFFFFFFFFFFFFFFF DUP3 PUSH3 0x4CE JUMP JUMPDEST PUSH3 0x519 DUP7 DUP4 PUSH3 0x4CE JUMP JUMPDEST SWAP6 POP DUP1 NOT DUP5 AND SWAP4 POP DUP1 DUP7 AND DUP5 OR SWAP3 POP POP POP SWAP4 SWAP3 POP POP POP JUMP JUMPDEST PUSH1 0x0 DUP2 SWAP1 POP SWAP2 SWAP1 POP JUMP JUMPDEST PUSH1 0x0 DUP2 SWAP1 POP SWAP2 SWAP1 POP JUMP JUMPDEST PUSH1 0x0 PUSH3 0x566 PUSH3 0x560 PUSH3 0x55A DUP5 PUSH3 0x531 JUMP JUMPDEST PUSH3 0x53B JUMP JUMPDEST PUSH3 0x531 JUMP JUMPDEST SWAP1 POP SWAP2 SWAP1 POP JUMP JUMPDEST PUSH1 0x0 DUP2 SWAP1 POP SWAP2 SWAP1 POP JUMP JUMPDEST PUSH3 0x582 DUP4 PUSH3 0x545 JUMP JUMPDEST PUSH3 0x59A PUSH3 0x591 DUP3 PUSH3 0x56D JUMP JUMPDEST DUP5 DUP5 SLOAD PUSH3 0x4DB JUMP JUMPDEST DUP3 SSTORE POP POP POP POP JUMP JUMPDEST PUSH1 0x0 SWAP1 JUMP JUMPDEST PUSH3 0x5B1 PUSH3 0x5A2 JUMP JUMPDEST PUSH3 0x5BE DUP2 DUP5 DUP5 PUSH3 0x577 JUMP JUMPDEST POP POP POP JUMP JUMPDEST JUMPDEST DUP2 DUP2 LT ISZERO PUSH3 0x5E6 JUMPI PUSH3 0x5DA PUSH1 0x0 DUP3 PUSH3 0x5A7 JUMP JUMPDEST PUSH1 0x1 DUP2 ADD SWAP1 POP PUSH3 0x5C4 JUMP JUMPDEST POP POP JUMP JUMPDEST PUSH1 0x1F DUP3 GT ISZERO PUSH3 0x635 JUMPI PUSH3 0x5FF DUP2 PUSH3 0x4A9 JUMP JUMPDEST PUSH3 0x60A DUP5 PUSH3 0x4BE JUMP JUMPDEST DUP2 ADD PUSH1 0x20 DUP6 LT ISZERO PUSH3 0x61A JUMPI DUP2 SWAP1 POP JUMPDEST PUSH3 0x632 PUSH3 0x629 DUP6 PUSH3 0x4BE JUMP JUMPDEST DUP4 ADD DUP3 PUSH3 0x5C3 JUMP JUMPDEST POP POP JUMPDEST POP POP POP JUMP JUMPDEST PUSH1 0x0 DUP3 DUP3 SHR SWAP1 POP SWAP3 SWAP2 POP POP JUMP JUMPDEST PUSH1 0x0 PUSH3 0x65A PUSH1 0x0 NOT DUP5 PUSH1 0x8 MUL PUSH3 0x63A JUMP JUMPDEST NOT DUP1 DUP4 AND SWAP2 POP POP SWAP3 SWAP2 POP POP JUMP JUMPDEST PUSH1 0x0 PUSH3 0x675 DUP4 DUP4 PUSH3 0x647 JUMP JUMPDEST SWAP2 POP DUP3 PUSH1 0x2 MUL DUP3 OR SWAP1 POP SWAP3 SWAP2 POP POP JUMP JUMPDEST PUSH3 0x690 DUP3 PUSH3 0x43A JUMP JUMPDEST PUSH8 0xFFFFFFFFFFFFFFFF DUP2 GT ISZERO PUSH3 0x6AC JUMPI PUSH3 0x6AB PUSH3 0x270 JUMP JUMPDEST JUMPDEST PUSH3 0x6B8 DUP3 SLOAD PUSH3 0x474 JUMP JUMPDEST PUSH3 0x6C5 DUP3 DUP3 DUP6 PUSH3 0x5EA JUMP JUMPDEST PUSH1 0x0 PUSH1 0x20 SWAP1 POP PUSH1 0x1F DUP4 GT PUSH1 0x1 DUP2 EQ PUSH3 0x6FD JUMPI PUSH1 0x0 DUP5 ISZERO PUSH3 0x6E8 JUMPI DUP3 DUP8 ADD MLOAD SWAP1 POP JUMPDEST PUSH3 0x6F4 DUP6 DUP3 PUSH3 0x667 JUMP JUMPDEST DUP7 SSTORE POP PUSH3 0x764 JUMP JUMPDEST PUSH1 0x1F NOT DUP5 AND PUSH3 0x70D DUP7 PUSH3 0x4A9 JUMP JUMPDEST PUSH1 0x0 JUMPDEST DUP3 DUP2 LT ISZERO PUSH3 0x737 JUMPI DUP5 DUP10 ADD MLOAD DUP3 SSTORE PUSH1 0x1 DUP3 ADD SWAP2 POP PUSH1 0x20 DUP6 ADD SWAP5 POP PUSH1 0x20 DUP2 ADD SWAP1 POP PUSH3 0x710 JUMP JUMPDEST DUP7 DUP4 LT ISZERO PUSH3 0x757 JUMPI DUP5 DUP10 ADD MLOAD PUSH3 0x753 PUSH1 0x1F DUP10 AND DUP3 PUSH3 0x647 JUMP JUMPDEST DUP4 SSTORE POP JUMPDEST PUSH1 0x1 PUSH1 0x2 DUP9 MUL ADD DUP9 SSTORE POP POP POP JUMPDEST POP POP POP POP POP POP JUMP JUMPDEST PUSH2 0x174F DUP1 PUSH3 0x77C PUSH1 0x0 CODECOPY PUSH1 0x0 RETURN INVALID PUSH1 0x80 PUSH1 0x40 MSTORE CALLVALUE DUP1 ISZERO PUSH2 0x10 JUMPI PUSH1 0x0 DUP1 REVERT JUMPDEST POP PUSH1 0x4 CALLDATASIZE LT PUSH2 0x121 JUMPI PUSH1 0x0 CALLDATALOAD PUSH1 0xE0 SHR DUP1 PUSH4 0x6C0360EB GT PUSH2 0xAD JUMPI DUP1 PUSH4 0xA3669AEF GT PUSH2 0x71 JUMPI DUP1 PUSH4 0xA3669AEF EQ PUSH2 0x32C JUMPI DUP1 PUSH4 0xA5C8D38D EQ PUSH2 0x348 JUMPI DUP1 PUSH4 0xCE45A823 EQ PUSH2 0x364 JUMPI DUP1 PUSH4 0xD547741F EQ PUSH2 0x394 JUMPI DUP1 PUSH4 0xE7705DB6 EQ PUSH2 0x3B0 JUMPI PUSH2 0x121 JUMP JUMPDEST DUP1 PUSH4 0x6C0360EB EQ PUSH2 0x272 JUMPI DUP1 PUSH4 0x7CCB6A64 EQ PUSH2 0x290 JUMPI DUP1 PUSH4 0x82AEFA24 EQ PUSH2 0x2C0 JUMPI DUP1 PUSH4 0x91D14854 EQ PUSH2 0x2DE JUMPI DUP1 PUSH4 0xA217FDDF EQ PUSH2 0x30E JUMPI PUSH2 0x121 JUMP JUMPDEST DUP1 PUSH4 0x1C49EA91 GT PUSH2 0xF4 JUMPI DUP1 PUSH4 0x1C49EA91 EQ PUSH2 0x1BE JUMPI DUP1 PUSH4 0x248A9CA3 EQ PUSH2 0x1DA JUMPI DUP1 PUSH4 0x2F2FF15D EQ PUSH2 0x20A JUMPI DUP1 PUSH4 0x36568ABE EQ PUSH2 0x226 JUMPI DUP1 PUSH4 0x3F5A084D EQ PUSH2 0x242 JUMPI PUSH2 0x121 JUMP JUMPDEST DUP1 PUSH4 0x1FFC9A7 EQ PUSH2 0x126 JUMPI DUP1 PUSH4 0x337C061 EQ PUSH2 0x156 JUMPI DUP1 PUSH4 0x140802EE EQ PUSH2 0x172 JUMPI DUP1 PUSH4 0x151839E5 EQ PUSH2 0x18E JUMPI JUMPDEST PUSH1 0x0 DUP1 REVERT JUMPDEST PUSH2 0x140 PUSH1 0x4 DUP1 CALLDATASIZE SUB DUP2 ADD SWAP1 PUSH2 0x13B SWAP2 SWAP1 PUSH2 0xDD9 JUMP JUMPDEST PUSH2 0x3CE JUMP JUMPDEST PUSH1 0x40 MLOAD PUSH2 0x14D SWAP2 SWAP1 PUSH2 0xE21 JUMP JUMPDEST PUSH1 0x40 MLOAD DUP1 SWAP2 SUB SWAP1 RETURN JUMPDEST PUSH2 0x170 PUSH1 0x4 DUP1 CALLDATASIZE SUB DUP2 ADD SWAP1 PUSH2 0x16B SWAP2 SWAP1 PUSH2 0xE9A JUMP JUMPDEST PUSH2 0x3E0 JUMP JUMPDEST STOP JUMPDEST PUSH2 0x18C PUSH1 0x4 DUP1 CALLDATASIZE SUB DUP2 ADD SWAP1 PUSH2 0x187 SWAP2 SWAP1 PUSH2 0xE9A JUMP JUMPDEST PUSH2 0x41B JUMP JUMPDEST STOP JUMPDEST PUSH2 0x1A8 PUSH1 0x4 DUP1 CALLDATASIZE SUB DUP2 ADD SWAP1 PUSH2 0x1A3 SWAP2 SWAP1 PUSH2 0x100D JUMP JUMPDEST PUSH2 0x456 JUMP JUMPDEST PUSH1 0x40 MLOAD PUSH2 0x1B5 SWAP2 SWAP1 PUSH2 0x10D5 JUMP JUMPDEST PUSH1 0x40 MLOAD DUP1 SWAP2 SUB SWAP1 RETURN JUMPDEST PUSH2 0x1D8 PUSH1 0x4 DUP1 CALLDATASIZE SUB DUP2 ADD SWAP1 PUSH2 0x1D3 SWAP2 SWAP1 PUSH2 0x10F7 JUMP JUMPDEST PUSH2 0x50C JUMP JUMPDEST STOP JUMPDEST PUSH2 0x1F4 PUSH1 0x4 DUP1 CALLDATASIZE SUB DUP2 ADD SWAP1 PUSH2 0x1EF SWAP2 SWAP1 PUSH2 0x11A5 JUMP JUMPDEST PUSH2 0x618 JUMP JUMPDEST PUSH1 0x40 MLOAD PUSH2 0x201 SWAP2 SWAP1 PUSH2 0x11E1 JUMP JUMPDEST PUSH1 0x40 MLOAD DUP1 SWAP2 SUB SWAP1 RETURN JUMPDEST PUSH2 0x224 PUSH1 0x4 DUP1 CALLDATASIZE SUB DUP2 ADD SWAP1 PUSH2 0x21F SWAP2 SWAP1 PUSH2 0x11FC JUMP JUMPDEST PUSH2 0x637 JUMP JUMPDEST STOP JUMPDEST PUSH2 0x240 PUSH1 0x4 DUP1 CALLDATASIZE SUB DUP2 ADD SWAP1 PUSH2 0x23B SWAP2 SWAP1 PUSH2 0x11FC JUMP JUMPDEST PUSH2 0x659 JUMP JUMPDEST STOP JUMPDEST PUSH2 0x25C PUSH1 0x4 DUP1 CALLDATASIZE SUB DUP2 ADD SWAP1 PUSH2 0x257 SWAP2 SWAP1 PUSH2 0x100D JUMP JUMPDEST PUSH2 0x6D4 JUMP JUMPDEST PUSH1 0x40 MLOAD PUSH2 0x269 SWAP2 SWAP1 PUSH2 0xE21 JUMP JUMPDEST PUSH1 0x40 MLOAD DUP1 SWAP2 SUB SWAP1 RETURN JUMPDEST PUSH2 0x27A PUSH2 0x70A JUMP JUMPDEST PUSH1 0x40 MLOAD PUSH2 0x287 SWAP2 SWAP1 PUSH2 0x10D5 JUMP JUMPDEST PUSH1 0x40 MLOAD DUP1 SWAP2 SUB SWAP1 RETURN JUMPDEST PUSH2 0x2AA PUSH1 0x4 DUP1 CALLDATASIZE SUB DUP2 ADD SWAP1 PUSH2 0x2A5 SWAP2 SWAP1 PUSH2 0x100D JUMP JUMPDEST PUSH2 0x798 JUMP JUMPDEST PUSH1 0x40 MLOAD PUSH2 0x2B7 SWAP2 SWAP1 PUSH2 0x10D5 JUMP JUMPDEST PUSH1 0x40 MLOAD DUP1 SWAP2 SUB SWAP1 RETURN JUMPDEST PUSH2 0x2C8 PUSH2 0x8B5 JUMP JUMPDEST PUSH1 0x40 MLOAD PUSH2 0x2D5 SWAP2 SWAP1 PUSH2 0x11E1 JUMP JUMPDEST PUSH1 0x40 MLOAD DUP1 SWAP2 SUB SWAP1 RETURN JUMPDEST PUSH2 0x2F8 PUSH1 0x4 DUP1 CALLDATASIZE SUB DUP2 ADD SWAP1 PUSH2 0x2F3 SWAP2 SWAP1 PUSH2 0x11FC JUMP JUMPDEST PUSH2 0x8D9 JUMP JUMPDEST PUSH1 0x40 MLOAD PUSH2 0x305 SWAP2 SWAP1 PUSH2 0xE21 JUMP JUMPDEST PUSH1 0x40 MLOAD DUP1 SWAP2 SUB SWAP1 RETURN JUMPDEST PUSH2 0x316 PUSH2 0x943 JUMP JUMPDEST PUSH1 0x40 MLOAD PUSH2 0x323 SWAP2 SWAP1 PUSH2 0x11E1 JUMP JUMPDEST PUSH1 0x40 MLOAD DUP1 SWAP2 SUB SWAP1 RETURN JUMPDEST PUSH2 0x346 PUSH1 0x4 DUP1 CALLDATASIZE SUB DUP2 ADD SWAP1 PUSH2 0x341 SWAP2 SWAP1 PUSH2 0xE9A JUMP JUMPDEST PUSH2 0x94A JUMP JUMPDEST STOP JUMPDEST PUSH2 0x362 PUSH1 0x4 DUP1 CALLDATASIZE SUB DUP2 ADD SWAP1 PUSH2 0x35D SWAP2 SWAP1 PUSH2 0xE9A JUMP JUMPDEST PUSH2 0x985 JUMP JUMPDEST STOP JUMPDEST PUSH2 0x37E PUSH1 0x4 DUP1 CALLDATASIZE SUB DUP2 ADD SWAP1 PUSH2 0x379 SWAP2 SWAP1 PUSH2 0xE9A JUMP JUMPDEST PUSH2 0x9C0 JUMP JUMPDEST PUSH1 0x40 MLOAD PUSH2 0x38B SWAP2 SWAP1 PUSH2 0xE21 JUMP JUMPDEST PUSH1 0x40 MLOAD DUP1 SWAP2 SUB SWAP1 RETURN JUMPDEST PUSH2 0x3AE PUSH1 0x4 DUP1 CALLDATASIZE SUB DUP2 ADD SWAP1 PUSH2 0x3A9 SWAP2 SWAP1 PUSH2 0x11FC JUMP JUMPDEST PUSH2 0x9F3 JUMP JUMPDEST STOP JUMPDEST PUSH2 0x3B8 PUSH2 0xA15 JUMP JUMPDEST PUSH1 0x40 MLOAD PUSH2 0x3C5 SWAP2 SWAP1 PUSH2 0x11E1 JUMP JUMPDEST PUSH1 0x40 MLOAD DUP1 SWAP2 SUB SWAP1 RETURN JUMPDEST PUSH1 0x0 PUSH2 0x3D9 DUP3 PUSH2 0xA39 JUMP JUMPDEST SWAP1 POP SWAP2 SWAP1 POP JUMP JUMPDEST PUSH1 0x0 DUP1 SHL PUSH2 0x3ED DUP2 PUSH2 0xAB3 JUMP JUMPDEST PUSH2 0x417 PUSH32 0xCE23C3E399818CFEE81A7AB0880F714E53D7672B08DF0FA62F2843416E1EA09 DUP4 PUSH2 0x637 JUMP JUMPDEST POP POP JUMP JUMPDEST PUSH1 0x0 DUP1 SHL PUSH2 0x428 DUP2 PUSH2 0xAB3 JUMP JUMPDEST PUSH2 0x452 PUSH32 0x114E74F6EA3BD819998F78687BFCB11B140DA08E9B7D222FA9C1F1BA1F2AA122 DUP4 PUSH2 0x9F3 JUMP JUMPDEST POP POP JUMP JUMPDEST PUSH1 0x2 DUP2 DUP1 MLOAD PUSH1 0x20 DUP2 ADD DUP3 ADD DUP1 MLOAD DUP5 DUP3 MSTORE PUSH1 0x20 DUP4 ADD PUSH1 0x20 DUP6 ADD KECCAK256 DUP2 DUP4 MSTORE DUP1 SWAP6 POP POP POP POP POP POP PUSH1 0x0 SWAP2 POP SWAP1 POP DUP1 SLOAD PUSH2 0x48B SWAP1 PUSH2 0x126B JUMP JUMPDEST DUP1 PUSH1 0x1F ADD PUSH1 0x20 DUP1 SWAP2 DIV MUL PUSH1 0x20 ADD PUSH1 0x40 MLOAD SWAP1 DUP2 ADD PUSH1 0x40 MSTORE DUP1 SWAP3 SWAP2 SWAP1 DUP2 DUP2 MSTORE PUSH1 0x20 ADD DUP3 DUP1 SLOAD PUSH2 0x4B7 SWAP1 PUSH2 0x126B JUMP JUMPDEST DUP1 ISZERO PUSH2 0x504 JUMPI DUP1 PUSH1 0x1F LT PUSH2 0x4D9 JUMPI PUSH2 0x100 DUP1 DUP4 SLOAD DIV MUL DUP4 MSTORE SWAP2 PUSH1 0x20 ADD SWAP2 PUSH2 0x504 JUMP JUMPDEST DUP3 ADD SWAP2 SWAP1 PUSH1 0x0 MSTORE PUSH1 0x20 PUSH1 0x0 KECCAK256 SWAP1 JUMPDEST DUP2 SLOAD DUP2 MSTORE SWAP1 PUSH1 0x1 ADD SWAP1 PUSH1 0x20 ADD DUP1 DUP4 GT PUSH2 0x4E7 JUMPI DUP3 SWAP1 SUB PUSH1 0x1F AND DUP3 ADD SWAP2 JUMPDEST POP POP POP POP POP DUP2 JUMP JUMPDEST PUSH32 0x114E74F6EA3BD819998F78687BFCB11B140DA08E9B7D222FA9C1F1BA1F2AA122 PUSH2 0x536 DUP2 PUSH2 0xAB3 JUMP JUMPDEST PUSH1 0x0 DUP4 MLOAD GT PUSH2 0x57A JUMPI PUSH1 0x40 MLOAD PUSH32 0x8C379A000000000000000000000000000000000000000000000000000000000 DUP2 MSTORE PUSH1 0x4 ADD PUSH2 0x571 SWAP1 PUSH2 0x130E JUMP JUMPDEST PUSH1 0x40 MLOAD DUP1 SWAP2 SUB SWAP1 REVERT JUMPDEST PUSH1 0x0 PUSH1 0x2 DUP5 PUSH1 0x40 MLOAD PUSH2 0x58C SWAP2 SWAP1 PUSH2 0x136A JUMP JUMPDEST SWAP1 DUP2 MSTORE PUSH1 0x20 ADD PUSH1 0x40 MLOAD DUP1 SWAP2 SUB SWAP1 KECCAK256 DUP1 SLOAD PUSH2 0x5A5 SWAP1 PUSH2 0x126B JUMP JUMPDEST SWAP1 POP EQ PUSH2 0x5E7 JUMPI PUSH1 0x40 MLOAD PUSH32 0x8C379A000000000000000000000000000000000000000000000000000000000 DUP2 MSTORE PUSH1 0x4 ADD PUSH2 0x5DE SWAP1 PUSH2 0x13CD JUMP JUMPDEST PUSH1 0x40 MLOAD DUP1 SWAP2 SUB SWAP1 REVERT JUMPDEST DUP2 PUSH1 0x2 DUP5 PUSH1 0x40 MLOAD PUSH2 0x5F8 SWAP2 SWAP1 PUSH2 0x136A JUMP JUMPDEST SWAP1 DUP2 MSTORE PUSH1 0x20 ADD PUSH1 0x40 MLOAD DUP1 SWAP2 SUB SWAP1 KECCAK256 SWAP1 DUP2 PUSH2 0x612 SWAP2 SWAP1 PUSH2 0x15A3 JUMP JUMPDEST POP POP POP POP JUMP JUMPDEST PUSH1 0x0 DUP1 PUSH1 0x0 DUP4 DUP2 MSTORE PUSH1 0x20 ADD SWAP1 DUP2 MSTORE PUSH1 0x20 ADD PUSH1 0x0 KECCAK256 PUSH1 0x1 ADD SLOAD SWAP1 POP SWAP2 SWAP1 POP JUMP JUMPDEST PUSH2 0x640 DUP3 PUSH2 0x618 JUMP JUMPDEST PUSH2 0x649 DUP2 PUSH2 0xAB3 JUMP JUMPDEST PUSH2 0x653 DUP4 DUP4 PUSH2 0xAC7 JUMP JUMPDEST POP POP POP POP JUMP JUMPDEST PUSH2 0x661 PUSH2 0xBB8 JUMP JUMPDEST PUSH20 0xFFFFFFFFFFFFFFFFFFFFFFFFFFFFFFFFFFFFFFFF AND DUP2 PUSH20 0xFFFFFFFFFFFFFFFFFFFFFFFFFFFFFFFFFFFFFFFF AND EQ PUSH2 0x6C5 JUMPI PUSH1 0x40 MLOAD PUSH32 0x6697B23200000000000000000000000000000000000000000000000000000000 DUP2 MSTORE PUSH1 0x4 ADD PUSH1 0x40 MLOAD DUP1 SWAP2 SUB SWAP1 REVERT JUMPDEST PUSH2 0x6CF DUP3 DUP3 PUSH2 0xBC0 JUMP JUMPDEST POP POP POP JUMP JUMPDEST PUSH1 0x0 DUP1 PUSH1 0x2 DUP4 PUSH1 0x40 MLOAD PUSH2 0x6E7 SWAP2 SWAP1 PUSH2 0x136A JUMP JUMPDEST SWAP1 DUP2 MSTORE PUSH1 0x20 ADD PUSH1 0x40 MLOAD DUP1 SWAP2 SUB SWAP1 KECCAK256 DUP1 SLOAD PUSH2 0x700 SWAP1 PUSH2 0x126B JUMP JUMPDEST SWAP1 POP GT SWAP1 POP SWAP2 SWAP1 POP JUMP JUMPDEST PUSH1 0x1 DUP1 SLOAD PUSH2 0x717 SWAP1 PUSH2 0x126B JUMP JUMPDEST DUP1 PUSH1 0x1F ADD PUSH1 0x20 DUP1 SWAP2 DIV MUL PUSH1 0x20 ADD PUSH1 0x40 MLOAD SWAP1 DUP2 ADD PUSH1 0x40 MSTORE DUP1 SWAP3 SWAP2 SWAP1 DUP2 DUP2 MSTORE PUSH1 0x20 ADD DUP3 DUP1 SLOAD PUSH2 0x743 SWAP1 PUSH2 0x126B JUMP JUMPDEST DUP1 ISZERO PUSH2 0x790 JUMPI DUP1 PUSH1 0x1F LT PUSH2 0x765 JUMPI PUSH2 0x100 DUP1 DUP4 SLOAD DIV MUL DUP4 MSTORE SWAP2 PUSH1 0x20 ADD SWAP2 PUSH2 0x790 JUMP JUMPDEST DUP3 ADD SWAP2 SWAP1 PUSH1 0x0 MSTORE PUSH1 0x20 PUSH1 0x0 KECCAK256 SWAP1 JUMPDEST DUP2 SLOAD DUP2 MSTORE SWAP1 PUSH1 0x1 ADD SWAP1 PUSH1 0x20 ADD DUP1 DUP4 GT PUSH2 0x773 JUMPI DUP3 SWAP1 SUB PUSH1 0x1F AND DUP3 ADD SWAP2 JUMPDEST POP POP POP POP POP DUP2 JUMP JUMPDEST PUSH1 0x60 PUSH1 0x0 PUSH1 0x2 DUP4 PUSH1 0x40 MLOAD PUSH2 0x7AC SWAP2 SWAP1 PUSH2 0x136A JUMP JUMPDEST SWAP1 DUP2 MSTORE PUSH1 0x20 ADD PUSH1 0x40 MLOAD DUP1 SWAP2 SUB SWAP1 KECCAK256 DUP1 SLOAD PUSH2 0x7C5 SWAP1 PUSH2 0x126B JUMP JUMPDEST SWAP1 POP GT PUSH2 0x807 JUMPI PUSH1 0x40 MLOAD PUSH32 0x8C379A000000000000000000000000000000000000000000000000000000000 DUP2 MSTORE PUSH1 0x4 ADD PUSH2 0x7FE SWAP1 PUSH2 0x16C1 JUMP JUMPDEST PUSH1 0x40 MLOAD DUP1 SWAP2 SUB SWAP1 REVERT JUMPDEST PUSH1 0x2 DUP3 PUSH1 0x40 MLOAD PUSH2 0x817 SWAP2 SWAP1 PUSH2 0x136A JUMP JUMPDEST SWAP1 DUP2 MSTORE PUSH1 0x20 ADD PUSH1 0x40 MLOAD DUP1 SWAP2 SUB SWAP1 KECCAK256 DUP1 SLOAD PUSH2 0x830 SWAP1 PUSH2 0x126B JUMP JUMPDEST DUP1 PUSH1 0x1F ADD PUSH1 0x20 DUP1 SWAP2 DIV MUL PUSH1 0x20 ADD PUSH1 0x40 MLOAD SWAP1 DUP2 ADD PUSH1 0x40 MSTORE DUP1 SWAP3 SWAP2 SWAP1 DUP2 DUP2 MSTORE PUSH1 0x20 ADD DUP3 DUP1 SLOAD PUSH2 0x85C SWAP1 PUSH2 0x126B JUMP JUMPDEST DUP1 ISZERO PUSH2 0x8A9 JUMPI DUP1 PUSH1 0x1F LT PUSH2 0x87E JUMPI PUSH2 0x100 DUP1 DUP4 SLOAD DIV MUL DUP4 MSTORE SWAP2 PUSH1 0x20 ADD SWAP2 PUSH2 0x8A9 JUMP JUMPDEST DUP3 ADD SWAP2 SWAP1 PUSH1 0x0 MSTORE PUSH1 0x20 PUSH1 0x0 KECCAK256 SWAP1 JUMPDEST DUP2 SLOAD DUP2 MSTORE SWAP1 PUSH1 0x1 ADD SWAP1 PUSH1 0x20 ADD DUP1 DUP4 GT PUSH2 0x88C JUMPI DUP3 SWAP1 SUB PUSH1 0x1F AND DUP3 ADD SWAP2 JUMPDEST POP POP POP POP POP SWAP1 POP SWAP2 SWAP1 POP JUMP JUMPDEST PUSH32 0x114E74F6EA3BD819998F78687BFCB11B140DA08E9B7D222FA9C1F1BA1F2AA122 DUP2 JUMP JUMPDEST PUSH1 0x0 DUP1 PUSH1 0x0 DUP5 DUP2 MSTORE PUSH1 0x20 ADD SWAP1 DUP2 MSTORE PUSH1 0x20 ADD PUSH1 0x0 KECCAK256 PUSH1 0x0 ADD PUSH1 0x0 DUP4 PUSH20 0xFFFFFFFFFFFFFFFFFFFFFFFFFFFFFFFFFFFFFFFF AND PUSH20 0xFFFFFFFFFFFFFFFFFFFFFFFFFFFFFFFFFFFFFFFF AND DUP2 MSTORE PUSH1 0x20 ADD SWAP1 DUP2 MSTORE PUSH1 0x20 ADD PUSH1 0x0 KECCAK256 PUSH1 0x0 SWAP1 SLOAD SWAP1 PUSH2 0x100 EXP SWAP1 DIV PUSH1 0xFF AND SWAP1 POP SWAP3 SWAP2 POP POP JUMP JUMPDEST PUSH1 0x0 DUP1 SHL DUP2 JUMP JUMPDEST PUSH1 0x0 DUP1 SHL PUSH2 0x957 DUP2 PUSH2 0xAB3 JUMP JUMPDEST PUSH2 0x981 PUSH32 0xCE23C3E399818CFEE81A7AB0880F714E53D7672B08DF0FA62F2843416E1EA09 DUP4 PUSH2 0x9F3 JUMP JUMPDEST POP POP JUMP JUMPDEST PUSH1 0x0 DUP1 SHL PUSH2 0x992 DUP2 PUSH2 0xAB3 JUMP JUMPDEST PUSH2 0x9BC PUSH32 0x114E74F6EA3BD819998F78687BFCB11B140DA08E9B7D222FA9C1F1BA1F2AA122 DUP4 PUSH2 0x637 JUMP JUMPDEST POP POP JUMP JUMPDEST PUSH1 0x0 PUSH2 0x9EC PUSH32 0xCE23C3E399818CFEE81A7AB0880F714E53D7672B08DF0FA62F2843416E1EA09 DUP4 PUSH2 0x8D9 JUMP JUMPDEST SWAP1 POP SWAP2 SWAP1 POP JUMP JUMPDEST PUSH2 0x9FC DUP3 PUSH2 0x618 JUMP JUMPDEST PUSH2 0xA05 DUP2 PUSH2 0xAB3 JUMP JUMPDEST PUSH2 0xA0F DUP4 DUP4 PUSH2 0xBC0 JUMP JUMPDEST POP POP POP POP JUMP JUMPDEST PUSH32 0xCE23C3E399818CFEE81A7AB0880F714E53D7672B08DF0FA62F2843416E1EA09 DUP2 JUMP JUMPDEST PUSH1 0x0 PUSH32 0x7965DB0B00000000000000000000000000000000000000000000000000000000 PUSH28 0xFFFFFFFFFFFFFFFFFFFFFFFFFFFFFFFFFFFFFFFFFFFFFFFFFFFFFFFF NOT AND DUP3 PUSH28 0xFFFFFFFFFFFFFFFFFFFFFFFFFFFFFFFFFFFFFFFFFFFFFFFFFFFFFFFF NOT AND EQ DUP1 PUSH2 0xAAC JUMPI POP PUSH2 0xAAB DUP3 PUSH2 0xCB2 JUMP JUMPDEST JUMPDEST SWAP1 POP SWAP2 SWAP1 POP JUMP JUMPDEST PUSH2 0xAC4 DUP2 PUSH2 0xABF PUSH2 0xBB8 JUMP JUMPDEST PUSH2 0xD1C JUMP JUMPDEST POP JUMP JUMPDEST PUSH1 0x0 PUSH2 0xAD3 DUP4 DUP4 PUSH2 0x8D9 JUMP JUMPDEST PUSH2 0xBAD JUMPI PUSH1 0x1 PUSH1 0x0 DUP1 DUP6 DUP2 MSTORE PUSH1 0x20 ADD SWAP1 DUP2 MSTORE PUSH1 0x20 ADD PUSH1 0x0 KECCAK256 PUSH1 0x0 ADD PUSH1 0x0 DUP5 PUSH20 0xFFFFFFFFFFFFFFFFFFFFFFFFFFFFFFFFFFFFFFFF AND PUSH20 0xFFFFFFFFFFFFFFFFFFFFFFFFFFFFFFFFFFFFFFFF AND DUP2 MSTORE PUSH1 0x20 ADD SWAP1 DUP2 MSTORE PUSH1 0x20 ADD PUSH1 0x0 KECCAK256 PUSH1 0x0 PUSH2 0x100 EXP DUP2 SLOAD DUP2 PUSH1 0xFF MUL NOT AND SWAP1 DUP4 ISZERO ISZERO MUL OR SWAP1 SSTORE POP PUSH2 0xB4A PUSH2 0xBB8 JUMP JUMPDEST PUSH20 0xFFFFFFFFFFFFFFFFFFFFFFFFFFFFFFFFFFFFFFFF AND DUP3 PUSH20 0xFFFFFFFFFFFFFFFFFFFFFFFFFFFFFFFFFFFFFFFF AND DUP5 PUSH32 0x2F8788117E7EFF1D82E926EC794901D17C78024A50270940304540A733656F0D PUSH1 0x40 MLOAD PUSH1 0x40 MLOAD DUP1 SWAP2 SUB SWAP1 LOG4 PUSH1 0x1 SWAP1 POP PUSH2 0xBB2 JUMP JUMPDEST PUSH1 0x0 SWAP1 POP JUMPDEST SWAP3 SWAP2 POP POP JUMP JUMPDEST PUSH1 0x0 CALLER SWAP1 POP SWAP1 JUMP JUMPDEST PUSH1 0x0 PUSH2 0xBCC DUP4 DUP4 PUSH2 0x8D9 JUMP JUMPDEST ISZERO PUSH2 0xCA7 JUMPI PUSH1 0x0 DUP1 PUSH1 0x0 DUP6 DUP2 MSTORE PUSH1 0x20 ADD SWAP1 DUP2 MSTORE PUSH1 0x20 ADD PUSH1 0x0 KECCAK256 PUSH1 0x0 ADD PUSH1 0x0 DUP5 PUSH20 0xFFFFFFFFFFFFFFFFFFFFFFFFFFFFFFFFFFFFFFFF AND PUSH20 0xFFFFFFFFFFFFFFFFFFFFFFFFFFFFFFFFFFFFFFFF AND DUP2 MSTORE PUSH1 0x20 ADD SWAP1 DUP2 MSTORE PUSH1 0x20 ADD PUSH1 0x0 KECCAK256 PUSH1 0x0 PUSH2 0x100 EXP DUP2 SLOAD DUP2 PUSH1 0xFF MUL NOT AND SWAP1 DUP4 ISZERO ISZERO MUL OR SWAP1 SSTORE POP PUSH2 0xC44 PUSH2 0xBB8 JUMP JUMPDEST PUSH20 0xFFFFFFFFFFFFFFFFFFFFFFFFFFFFFFFFFFFFFFFF AND DUP3 PUSH20 0xFFFFFFFFFFFFFFFFFFFFFFFFFFFFFFFFFFFFFFFF AND DUP5 PUSH32 0xF6391F5C32D9C69D2A47EA670B442974B53935D1EDC7FD64EB21E047A839171B PUSH1 0x40 MLOAD PUSH1 0x40 MLOAD DUP1 SWAP2 SUB SWAP1 LOG4 PUSH1 0x1 SWAP1 POP PUSH2 0xCAC JUMP JUMPDEST PUSH1 0x0 SWAP1 POP JUMPDEST SWAP3 SWAP2 POP POP JUMP JUMPDEST PUSH1 0x0 PUSH32 0x1FFC9A700000000000000000000000000000000000000000000000000000000 PUSH28 0xFFFFFFFFFFFFFFFFFFFFFFFFFFFFFFFFFFFFFFFFFFFFFFFFFFFFFFFF NOT AND DUP3 PUSH28 0xFFFFFFFFFFFFFFFFFFFFFFFFFFFFFFFFFFFFFFFFFFFFFFFFFFFFFFFF NOT AND EQ SWAP1 POP SWAP2 SWAP1 POP JUMP JUMPDEST PUSH2 0xD26 DUP3 DUP3 PUSH2 0x8D9 JUMP JUMPDEST PUSH2 0xD69 JUMPI DUP1 DUP3 PUSH1 0x40 MLOAD PUSH32 0xE2517D3F00000000000000000000000000000000000000000000000000000000 DUP2 MSTORE PUSH1 0x4 ADD PUSH2 0xD60 SWAP3 SWAP2 SWAP1 PUSH2 0x16F0 JUMP JUMPDEST PUSH1 0x40 MLOAD DUP1 SWAP2 SUB SWAP1 REVERT JUMPDEST POP POP JUMP JUMPDEST PUSH1 0x0 PUSH1 0x40 MLOAD SWAP1 POP SWAP1 JUMP JUMPDEST PUSH1 0x0 DUP1 REVERT JUMPDEST PUSH1 0x0 DUP1 REVERT JUMPDEST PUSH1 0x0 PUSH32 0xFFFFFFFF00000000000000000000000000000000000000000000000000000000 DUP3 AND SWAP1 POP SWAP2 SWAP1 POP JUMP JUMPDEST PUSH2 0xDB6 DUP2 PUSH2 0xD81 JUMP JUMPDEST DUP2 EQ PUSH2 0xDC1 JUMPI PUSH1 0x0 DUP1 REVERT JUMPDEST POP JUMP JUMPDEST PUSH1 0x0 DUP2 CALLDATALOAD SWAP1 POP PUSH2 0xDD3 DUP2 PUSH2 0xDAD JUMP JUMPDEST SWAP3 SWAP2 POP POP JUMP JUMPDEST PUSH1 0x0 PUSH1 0x20 DUP3 DUP5 SUB SLT ISZERO PUSH2 0xDEF JUMPI PUSH2 0xDEE PUSH2 0xD77 JUMP JUMPDEST JUMPDEST PUSH1 0x0 PUSH2 0xDFD DUP5 DUP3 DUP6 ADD PUSH2 0xDC4 JUMP JUMPDEST SWAP2 POP POP SWAP3 SWAP2 POP POP JUMP JUMPDEST PUSH1 0x0 DUP2 ISZERO ISZERO SWAP1 POP SWAP2 SWAP1 POP JUMP JUMPDEST PUSH2 0xE1B DUP2 PUSH2 0xE06 JUMP JUMPDEST DUP3 MSTORE POP POP JUMP JUMPDEST PUSH1 0x0 PUSH1 0x20 DUP3 ADD SWAP1 POP PUSH2 0xE36 PUSH1 0x0 DUP4 ADD DUP5 PUSH2 0xE12 JUMP JUMPDEST SWAP3 SWAP2 POP POP JUMP JUMPDEST PUSH1 0x0 PUSH20 0xFFFFFFFFFFFFFFFFFFFFFFFFFFFFFFFFFFFFFFFF DUP3 AND SWAP1 POP SWAP2 SWAP1 POP JUMP JUMPDEST PUSH1 0x0 PUSH2 0xE67 DUP3 PUSH2 0xE3C JUMP JUMPDEST SWAP1 POP SWAP2 SWAP1 POP JUMP JUMPDEST PUSH2 0xE77 DUP2 PUSH2 0xE5C JUMP JUMPDEST DUP2 EQ PUSH2 0xE82 JUMPI PUSH1 0x0 DUP1 REVERT JUMPDEST POP JUMP JUMPDEST PUSH1 0x0 DUP2 CALLDATALOAD SWAP1 POP PUSH2 0xE94 DUP2 PUSH2 0xE6E JUMP JUMPDEST SWAP3 SWAP2 POP POP JUMP JUMPDEST PUSH1 0x0 PUSH1 0x20 DUP3 DUP5 SUB SLT ISZERO PUSH2 0xEB0 JUMPI PUSH2 0xEAF PUSH2 0xD77 JUMP JUMPDEST JUMPDEST PUSH1 0x0 PUSH2 0xEBE DUP5 DUP3 DUP6 ADD PUSH2 0xE85 JUMP JUMPDEST SWAP2 POP POP SWAP3 SWAP2 POP POP JUMP JUMPDEST PUSH1 0x0 DUP1 REVERT JUMPDEST PUSH1 0x0 DUP1 REVERT JUMPDEST PUSH1 0x0 PUSH1 0x1F NOT PUSH1 0x1F DUP4 ADD AND SWAP1 POP SWAP2 SWAP1 POP JUMP JUMPDEST PUSH32 0x4E487B7100000000000000000000000000000000000000000000000000000000 PUSH1 0x0 MSTORE PUSH1 0x41 PUSH1 0x4 MSTORE PUSH1 0x24 PUSH1 0x0 REVERT JUMPDEST PUSH2 0xF1A DUP3 PUSH2 0xED1 JUMP JUMPDEST DUP2 ADD DUP2 DUP2 LT PUSH8 0xFFFFFFFFFFFFFFFF DUP3 GT OR ISZERO PUSH2 0xF39 JUMPI PUSH2 0xF38 PUSH2 0xEE2 JUMP JUMPDEST JUMPDEST DUP1 PUSH1 0x40 MSTORE POP POP POP JUMP JUMPDEST PUSH1 0x0 PUSH2 0xF4C PUSH2 0xD6D JUMP JUMPDEST SWAP1 POP PUSH2 0xF58 DUP3 DUP3 PUSH2 0xF11 JUMP JUMPDEST SWAP2 SWAP1 POP JUMP JUMPDEST PUSH1 0x0 PUSH8 0xFFFFFFFFFFFFFFFF DUP3 GT ISZERO PUSH2 0xF78 JUMPI PUSH2 0xF77 PUSH2 0xEE2 JUMP JUMPDEST JUMPDEST PUSH2 0xF81 DUP3 PUSH2 0xED1 JUMP JUMPDEST SWAP1 POP PUSH1 0x20 DUP2 ADD SWAP1 POP SWAP2 SWAP1 POP JUMP JUMPDEST DUP3 DUP2 DUP4 CALLDATACOPY PUSH1 0x0 DUP4 DUP4 ADD MSTORE POP POP POP JUMP JUMPDEST PUSH1 0x0 PUSH2 0xFB0 PUSH2 0xFAB DUP5 PUSH2 0xF5D JUMP JUMPDEST PUSH2 0xF42 JUMP JUMPDEST SWAP1 POP DUP3 DUP2 MSTORE PUSH1 0x20 DUP2 ADD DUP5 DUP5 DUP5 ADD GT ISZERO PUSH2 0xFCC JUMPI PUSH2 0xFCB PUSH2 0xECC JUMP JUMPDEST JUMPDEST PUSH2 0xFD7 DUP5 DUP3 DUP6 PUSH2 0xF8E JUMP JUMPDEST POP SWAP4 SWAP3 POP POP POP JUMP JUMPDEST PUSH1 0x0 DUP3 PUSH1 0x1F DUP4 ADD SLT PUSH2 0xFF4 JUMPI PUSH2 0xFF3 PUSH2 0xEC7 JUMP JUMPDEST JUMPDEST DUP2 CALLDATALOAD PUSH2 0x1004 DUP5 DUP3 PUSH1 0x20 DUP7 ADD PUSH2 0xF9D JUMP JUMPDEST SWAP2 POP POP SWAP3 SWAP2 POP POP JUMP JUMPDEST PUSH1 0x0 PUSH1 0x20 DUP3 DUP5 SUB SLT ISZERO PUSH2 0x1023 JUMPI PUSH2 0x1022 PUSH2 0xD77 JUMP JUMPDEST JUMPDEST PUSH1 0x0 DUP3 ADD CALLDATALOAD PUSH8 0xFFFFFFFFFFFFFFFF DUP2 GT ISZERO PUSH2 0x1041 JUMPI PUSH2 0x1040 PUSH2 0xD7C JUMP JUMPDEST JUMPDEST PUSH2 0x104D DUP5 DUP3 DUP6 ADD PUSH2 0xFDF JUMP JUMPDEST SWAP2 POP POP SWAP3 SWAP2 POP POP JUMP JUMPDEST PUSH1 0x0 DUP2 MLOAD SWAP1 POP SWAP2 SWAP1 POP JUMP JUMPDEST PUSH1 0x0 DUP3 DUP3 MSTORE PUSH1 0x20 DUP3 ADD SWAP1 POP SWAP3 SWAP2 POP POP JUMP JUMPDEST PUSH1 0x0 JUMPDEST DUP4 DUP2 LT ISZERO PUSH2 0x1090 JUMPI DUP1 DUP3 ADD MLOAD DUP2 DUP5 ADD MSTORE PUSH1 0x20 DUP2 ADD SWAP1 POP PUSH2 0x1075 JUMP JUMPDEST PUSH1 0x0 DUP5 DUP5 ADD MSTORE POP POP POP POP JUMP JUMPDEST PUSH1 0x0 PUSH2 0x10A7 DUP3 PUSH2 0x1056 JUMP JUMPDEST PUSH2 0x10B1 DUP2 DUP6 PUSH2 0x1061 JUMP JUMPDEST SWAP4 POP PUSH2 0x10C1 DUP2 DUP6 PUSH1 0x20 DUP7 ADD PUSH2 0x1072 JUMP JUMPDEST PUSH2 0x10CA DUP2 PUSH2 0xED1 JUMP JUMPDEST DUP5 ADD SWAP2 POP POP SWAP3 SWAP2 POP POP JUMP JUMPDEST PUSH1 0x0 PUSH1 0x20 DUP3 ADD SWAP1 POP DUP2 DUP2 SUB PUSH1 0x0 DUP4 ADD MSTORE PUSH2 0x10EF DUP2 DUP5 PUSH2 0x109C JUMP JUMPDEST SWAP1 POP SWAP3 SWAP2 POP POP JUMP JUMPDEST PUSH1 0x0 DUP1 PUSH1 0x40 DUP4 DUP6 SUB SLT ISZERO PUSH2 0x110E JUMPI PUSH2 0x110D PUSH2 0xD77 JUMP JUMPDEST JUMPDEST PUSH1 0x0 DUP4 ADD CALLDATALOAD PUSH8 0xFFFFFFFFFFFFFFFF DUP2 GT ISZERO PUSH2 0x112C JUMPI PUSH2 0x112B PUSH2 0xD7C JUMP JUMPDEST JUMPDEST PUSH2 0x1138 DUP6 DUP3 DUP7 ADD PUSH2 0xFDF JUMP JUMPDEST SWAP3 POP POP PUSH1 0x20 DUP4 ADD CALLDATALOAD PUSH8 0xFFFFFFFFFFFFFFFF DUP2 GT ISZERO PUSH2 0x1159 JUMPI PUSH2 0x1158 PUSH2 0xD7C JUMP JUMPDEST JUMPDEST PUSH2 0x1165 DUP6 DUP3 DUP7 ADD PUSH2 0xFDF JUMP JUMPDEST SWAP2 POP POP SWAP3 POP SWAP3 SWAP1 POP JUMP JUMPDEST PUSH1 0x0 DUP2 SWAP1 POP SWAP2 SWAP1 POP JUMP JUMPDEST PUSH2 0x1182 DUP2 PUSH2 0x116F JUMP JUMPDEST DUP2 EQ PUSH2 0x118D JUMPI PUSH1 0x0 DUP1 REVERT JUMPDEST POP JUMP JUMPDEST PUSH1 0x0 DUP2 CALLDATALOAD SWAP1 POP PUSH2 0x119F DUP2 PUSH2 0x1179 JUMP JUMPDEST SWAP3 SWAP2 POP POP JUMP JUMPDEST PUSH1 0x0 PUSH1 0x20 DUP3 DUP5 SUB SLT ISZERO PUSH2 0x11BB JUMPI PUSH2 0x11BA PUSH2 0xD77 JUMP JUMPDEST JUMPDEST PUSH1 0x0 PUSH2 0x11C9 DUP5 DUP3 DUP6 ADD PUSH2 0x1190 JUMP JUMPDEST SWAP2 POP POP SWAP3 SWAP2 POP POP JUMP JUMPDEST PUSH2 0x11DB DUP2 PUSH2 0x116F JUMP JUMPDEST DUP3 MSTORE POP POP JUMP JUMPDEST PUSH1 0x0 PUSH1 0x20 DUP3 ADD SWAP1 POP PUSH2 0x11F6 PUSH1 0x0 DUP4 ADD DUP5 PUSH2 0x11D2 JUMP JUMPDEST SWAP3 SWAP2 POP POP JUMP JUMPDEST PUSH1 0x0 DUP1 PUSH1 0x40 DUP4 DUP6 SUB SLT ISZERO PUSH2 0x1213 JUMPI PUSH2 0x1212 PUSH2 0xD77 JUMP JUMPDEST JUMPDEST PUSH1 0x0 PUSH2 0x1221 DUP6 DUP3 DUP7 ADD PUSH2 0x1190 JUMP JUMPDEST SWAP3 POP POP PUSH1 0x20 PUSH2 0x1232 DUP6 DUP3 DUP7 ADD PUSH2 0xE85 JUMP JUMPDEST SWAP2 POP POP SWAP3 POP SWAP3 SWAP1 POP JUMP JUMPDEST PUSH32 0x4E487B7100000000000000000000000000000000000000000000000000000000 PUSH1 0x0 MSTORE PUSH1 0x22 PUSH1 0x4 MSTORE PUSH1 0x24 PUSH1 0x0 REVERT JUMPDEST PUSH1 0x0 PUSH1 0x2 DUP3 DIV SWAP1 POP PUSH1 0x1 DUP3 AND DUP1 PUSH2 0x1283 JUMPI PUSH1 0x7F DUP3 AND SWAP2 POP JUMPDEST PUSH1 0x20 DUP3 LT DUP2 SUB PUSH2 0x1296 JUMPI PUSH2 0x1295 PUSH2 0x123C JUMP JUMPDEST JUMPDEST POP SWAP2 SWAP1 POP JUMP JUMPDEST PUSH32 0x4C65206861736820647520646F63756D656E74206E6520706575742070617320 PUSH1 0x0 DUP3 ADD MSTORE PUSH32 0x7265737465722076696465000000000000000000000000000000000000000000 PUSH1 0x20 DUP3 ADD MSTORE POP JUMP JUMPDEST PUSH1 0x0 PUSH2 0x12F8 PUSH1 0x2B DUP4 PUSH2 0x1061 JUMP JUMPDEST SWAP2 POP PUSH2 0x1303 DUP3 PUSH2 0x129C JUMP JUMPDEST PUSH1 0x40 DUP3 ADD SWAP1 POP SWAP2 SWAP1 POP JUMP JUMPDEST PUSH1 0x0 PUSH1 0x20 DUP3 ADD SWAP1 POP DUP2 DUP2 SUB PUSH1 0x0 DUP4 ADD MSTORE PUSH2 0x1327 DUP2 PUSH2 0x12EB JUMP JUMPDEST SWAP1 POP SWAP2 SWAP1 POP JUMP JUMPDEST PUSH1 0x0 DUP2 SWAP1 POP SWAP3 SWAP2 POP POP JUMP JUMPDEST PUSH1 0x0 PUSH2 0x1344 DUP3 PUSH2 0x1056 JUMP JUMPDEST PUSH2 0x134E DUP2 DUP6 PUSH2 0x132E JUMP JUMPDEST SWAP4 POP PUSH2 0x135E DUP2 DUP6 PUSH1 0x20 DUP7 ADD PUSH2 0x1072 JUMP JUMPDEST DUP1 DUP5 ADD SWAP2 POP POP SWAP3 SWAP2 POP POP JUMP JUMPDEST PUSH1 0x0 PUSH2 0x1376 DUP3 DUP5 PUSH2 0x1339 JUMP JUMPDEST SWAP2 POP DUP2 SWAP1 POP SWAP3 SWAP2 POP POP JUMP JUMPDEST PUSH32 0x4C6520646F63756D656E74206578697374650000000000000000000000000000 PUSH1 0x0 DUP3 ADD MSTORE POP JUMP JUMPDEST PUSH1 0x0 PUSH2 0x13B7 PUSH1 0x12 DUP4 PUSH2 0x1061 JUMP JUMPDEST SWAP2 POP PUSH2 0x13C2 DUP3 PUSH2 0x1381 JUMP JUMPDEST PUSH1 0x20 DUP3 ADD SWAP1 POP SWAP2 SWAP1 POP JUMP JUMPDEST PUSH1 0x0 PUSH1 0x20 DUP3 ADD SWAP1 POP DUP2 DUP2 SUB PUSH1 0x0 DUP4 ADD MSTORE PUSH2 0x13E6 DUP2 PUSH2 0x13AA JUMP JUMPDEST SWAP1 POP SWAP2 SWAP1 POP JUMP JUMPDEST PUSH1 0x0 DUP2 SWAP1 POP DUP2 PUSH1 0x0 MSTORE PUSH1 0x20 PUSH1 0x0 KECCAK256 SWAP1 POP SWAP2 SWAP1 POP JUMP JUMPDEST PUSH1 0x0 PUSH1 0x20 PUSH1 0x1F DUP4 ADD DIV SWAP1 POP SWAP2 SWAP1 POP JUMP JUMPDEST PUSH1 0x0 DUP3 DUP3 SHL SWAP1 POP SWAP3 SWAP2 POP POP JUMP JUMPDEST PUSH1 0x0 PUSH1 0x8 DUP4 MUL PUSH2 0x144F PUSH32 0xFFFFFFFFFFFFFFFFFFFFFFFFFFFFFFFFFFFFFFFFFFFFFFFFFFFFFFFFFFFFFFFF DUP3 PUSH2 0x1412 JUMP JUMPDEST PUSH2 0x1459 DUP7 DUP4 PUSH2 0x1412 JUMP JUMPDEST SWAP6 POP DUP1 NOT DUP5 AND SWAP4 POP DUP1 DUP7 AND DUP5 OR SWAP3 POP POP POP SWAP4 SWAP3 POP POP POP JUMP JUMPDEST PUSH1 0x0 DUP2 SWAP1 POP SWAP2 SWAP1 POP JUMP JUMPDEST PUSH1 0x0 DUP2 SWAP1 POP SWAP2 SWAP1 POP JUMP JUMPDEST PUSH1 0x0 PUSH2 0x14A0 PUSH2 0x149B PUSH2 0x1496 DUP5 PUSH2 0x1471 JUMP JUMPDEST PUSH2 0x147B JUMP JUMPDEST PUSH2 0x1471 JUMP JUMPDEST SWAP1 POP SWAP2 SWAP1 POP JUMP JUMPDEST PUSH1 0x0 DUP2 SWAP1 POP SWAP2 SWAP1 POP JUMP JUMPDEST PUSH2 0x14BA DUP4 PUSH2 0x1485 JUMP JUMPDEST PUSH2 0x14CE PUSH2 0x14C6 DUP3 PUSH2 0x14A7 JUMP JUMPDEST DUP5 DUP5 SLOAD PUSH2 0x141F JUMP JUMPDEST DUP3 SSTORE POP POP POP POP JUMP JUMPDEST PUSH1 0x0 SWAP1 JUMP JUMPDEST PUSH2 0x14E3 PUSH2 0x14D6 JUMP JUMPDEST PUSH2 0x14EE DUP2 DUP5 DUP5 PUSH2 0x14B1 JUMP JUMPDEST POP POP POP JUMP JUMPDEST JUMPDEST DUP2 DUP2 LT ISZERO PUSH2 0x1512 JUMPI PUSH2 0x1507 PUSH1 0x0 DUP3 PUSH2 0x14DB JUMP JUMPDEST PUSH1 0x1 DUP2 ADD SWAP1 POP PUSH2 0x14F4 JUMP JUMPDEST POP POP JUMP JUMPDEST PUSH1 0x1F DUP3 GT ISZERO PUSH2 0x1557 JUMPI PUSH2 0x1528 DUP2 PUSH2 0x13ED JUMP JUMPDEST PUSH2 0x1531 DUP5 PUSH2 0x1402 JUMP JUMPDEST DUP2 ADD PUSH1 0x20 DUP6 LT ISZERO PUSH2 0x1540 JUMPI DUP2 SWAP1 POP JUMPDEST PUSH2 0x1554 PUSH2 0x154C DUP6 PUSH2 0x1402 JUMP JUMPDEST DUP4 ADD DUP3 PUSH2 0x14F3 JUMP JUMPDEST POP POP JUMPDEST POP POP POP JUMP JUMPDEST PUSH1 0x0 DUP3 DUP3 SHR SWAP1 POP SWAP3 SWAP2 POP POP JUMP JUMPDEST PUSH1 0x0 PUSH2 0x157A PUSH1 0x0 NOT DUP5 PUSH1 0x8 MUL PUSH2 0x155C JUMP JUMPDEST NOT DUP1 DUP4 AND SWAP2 POP POP SWAP3 SWAP2 POP POP JUMP JUMPDEST PUSH1 0x0 PUSH2 0x1593 DUP4 DUP4 PUSH2 0x1569 JUMP JUMPDEST SWAP2 POP DUP3 PUSH1 0x2 MUL DUP3 OR SWAP1 POP SWAP3 SWAP2 POP POP JUMP JUMPDEST PUSH2 0x15AC DUP3 PUSH2 0x1056 JUMP JUMPDEST PUSH8 0xFFFFFFFFFFFFFFFF DUP2 GT ISZERO PUSH2 0x15C5 JUMPI PUSH2 0x15C4 PUSH2 0xEE2 JUMP JUMPDEST JUMPDEST PUSH2 0x15CF DUP3 SLOAD PUSH2 0x126B JUMP JUMPDEST PUSH2 0x15DA DUP3 DUP3 DUP6 PUSH2 0x1516 JUMP JUMPDEST PUSH1 0x0 PUSH1 0x20 SWAP1 POP PUSH1 0x1F DUP4 GT PUSH1 0x1 DUP2 EQ PUSH2 0x160D JUMPI PUSH1 0x0 DUP5 ISZERO PUSH2 0x15FB JUMPI DUP3 DUP8 ADD MLOAD SWAP1 POP JUMPDEST PUSH2 0x1605 DUP6 DUP3 PUSH2 0x1587 JUMP JUMPDEST DUP7 SSTORE POP PUSH2 0x166D JUMP JUMPDEST PUSH1 0x1F NOT DUP5 AND PUSH2 0x161B DUP7 PUSH2 0x13ED JUMP JUMPDEST PUSH1 0x0 JUMPDEST DUP3 DUP2 LT ISZERO PUSH2 0x1643 JUMPI DUP5 DUP10 ADD MLOAD DUP3 SSTORE PUSH1 0x1 DUP3 ADD SWAP2 POP PUSH1 0x20 DUP6 ADD SWAP5 POP PUSH1 0x20 DUP2 ADD SWAP1 POP PUSH2 0x161E JUMP JUMPDEST DUP7 DUP4 LT ISZERO PUSH2 0x1660 JUMPI DUP5 DUP10 ADD MLOAD PUSH2 0x165C PUSH1 0x1F DUP10 AND DUP3 PUSH2 0x1569 JUMP JUMPDEST DUP4 SSTORE POP JUMPDEST PUSH1 0x1 PUSH1 0x2 DUP9 MUL ADD DUP9 SSTORE POP POP POP JUMPDEST POP POP POP POP POP POP JUMP JUMPDEST PUSH32 0x4C6520646F63756D656E74206E27657869737465207061730000000000000000 PUSH1 0x0 DUP3 ADD MSTORE POP JUMP JUMPDEST PUSH1 0x0 PUSH2 0x16AB PUSH1 0x18 DUP4 PUSH2 0x1061 JUMP JUMPDEST SWAP2 POP PUSH2 0x16B6 DUP3 PUSH2 0x1675 JUMP JUMPDEST PUSH1 0x20 DUP3 ADD SWAP1 POP SWAP2 SWAP1 POP JUMP JUMPDEST PUSH1 0x0 PUSH1 0x20 DUP3 ADD SWAP1 POP DUP2 DUP2 SUB PUSH1 0x0 DUP4 ADD MSTORE PUSH2 0x16DA DUP2 PUSH2 0x169E JUMP JUMPDEST SWAP1 POP SWAP2 SWAP1 POP JUMP JUMPDEST PUSH2 0x16EA DUP2 PUSH2 0xE5C JUMP JUMPDEST DUP3 MSTORE POP POP JUMP JUMPDEST PUSH1 0x0 PUSH1 0x40 DUP3 ADD SWAP1 POP PUSH2 0x1705 PUSH1 0x0 DUP4 ADD DUP6 PUSH2 0x16E1 JUMP JUMPDEST PUSH2 0x1712 PUSH1 0x20 DUP4 ADD DUP5 PUSH2 0x11D2 JUMP JUMPDEST SWAP4 SWAP3 POP POP POP JUMP INVALID LOG2 PUSH5 0x6970667358 0x22 SLT KECCAK256 MUL LOG1 COINBASE PUSH1 0xBD 0xBE 0xE0 PUSH32 0x7F8B4EF52AC77B9838CB0C6F9E96346AF1C5B210315994A764736F6C63430008 EQ STOP CALLER "},"methodIdentifiers":{"DEFAULT_ADMIN_ROLE()":"a217fddf","ISSUER_ROLE()":"82aefa24","VERIFIER_ROLE()":"e7705db6","baseURI()":"6c0360eb","checkIsValidDocumentId(string)":"3f5a084d","checkisVerifier(address)":"ce45a823","documentsArray(string)":"151839e5","getDocument(string)":"7ccb6a64","getRoleAdmin(bytes32)":"248a9ca3","grantIssuerRole(address)":"a5c8d38d","grantRole(bytes32,address)":"2f2ff15d","grantVerifierRole(address)":"0337c061","hasRole(bytes32,address)":"91d14854","registerDocument(string,string)":"1c49ea91","renounceRole(bytes32,address)":"36568abe","revokeIssuerRole(address)":"140802ee","revokeRole(bytes32,address)":"d547741f","revokeVerifierRole(address)":"a3669aef","supportsInterface(bytes4)":"01ffc9a7"}}}}}