{
  "_format": "hh-sol-artifact-1",
  "contractName": "BlockchainIdSystem",
  "sourceName": "src/contracts/BlockchainIdSystem.sol",
  "abi": [
    {
      "inputs": [
        {
          "internalType": "address",
          "name": "defaultAdmin",
          "type": "address"
        },
        {
          "internalType": "string",
          "name": "_baseURI",
          "type": "string"
        }
      ],
      "stateMutability": "nonpayable",
      "type": "constructor"
    },
    {
      "inputs": [],
      "name": "AccessControlBadConfirmation",
      "type": "error"
    },
    {
      "inputs": [
        {
          "internalType": "address",
          "name": "account",
          "type": "address"
        },
        {
          "internalType": "bytes32",
          "name": "neededRole",
          "type": "bytes32"
        }
      ],
      "name": "AccessControlUnauthorizedAccount",
      "type": "error"
    },
    {
      "anonymous": false,
      "inputs": [
        {
          "indexed": true,
          "internalType": "bytes32",
          "name": "role",
          "type": "bytes32"
        },
        {
          "indexed": true,
          "internalType": "bytes32",
          "name": "previousAdminRole",
          "type": "bytes32"
        },
        {
          "indexed": true,
          "internalType": "bytes32",
          "name": "newAdminRole",
          "type": "bytes32"
        }
      ],
      "name": "RoleAdminChanged",
      "type": "event"
    },
    {
      "anonymous": false,
      "inputs": [
        {
          "indexed": true,
          "internalType": "bytes32",
          "name": "role",
          "type": "bytes32"
        },
        {
          "indexed": true,
          "internalType": "address",
          "name": "account",
          "type": "address"
        },
        {
          "indexed": true,
          "internalType": "address",
          "name": "sender",
          "type": "address"
        }
      ],
      "name": "RoleGranted",
      "type": "event"
    },
    {
      "anonymous": false,
      "inputs": [
        {
          "indexed": true,
          "internalType": "bytes32",
          "name": "role",
          "type": "bytes32"
        },
        {
          "indexed": true,
          "internalType": "address",
          "name": "account",
          "type": "address"
        },
        {
          "indexed": true,
          "internalType": "address",
          "name": "sender",
          "type": "address"
        }
      ],
      "name": "RoleRevoked",
      "type": "event"
    },
    {
      "inputs": [],
      "name": "DEFAULT_ADMIN_ROLE",
      "outputs": [
        {
          "internalType": "bytes32",
          "name": "",
          "type": "bytes32"
        }
      ],
      "stateMutability": "view",
      "type": "function"
    },
    {
      "inputs": [],
      "name": "ISSUER_ROLE",
      "outputs": [
        {
          "internalType": "bytes32",
          "name": "",
          "type": "bytes32"
        }
      ],
      "stateMutability": "view",
      "type": "function"
    },
    {
      "inputs": [],
      "name": "VERIFIER_ROLE",
      "outputs": [
        {
          "internalType": "bytes32",
          "name": "",
          "type": "bytes32"
        }
      ],
      "stateMutability": "view",
      "type": "function"
    },
    {
      "inputs": [],
      "name": "baseURI",
      "outputs": [
        {
          "internalType": "string",
          "name": "",
          "type": "string"
        }
      ],
      "stateMutability": "view",
      "type": "function"
    },
    {
      "inputs": [
        {
          "internalType": "string",
          "name": "searchString",
          "type": "string"
        }
      ],
      "name": "checkIsValidDocumentId",
      "outputs": [
        {
          "internalType": "bool",
          "name": "",
          "type": "bool"
        }
      ],
      "stateMutability": "view",
      "type": "function"
    },
    {
      "inputs": [
        {
          "internalType": "address",
          "name": "account",
          "type": "address"
        }
      ],
      "name": "checkisVerifier",
      "outputs": [
        {
          "internalType": "bool",
          "name": "",
          "type": "bool"
        }
      ],
      "stateMutability": "view",
      "type": "function"
    },
    {
      "inputs": [
        {
          "internalType": "string",
          "name": "",
          "type": "string"
        }
      ],
      "name": "documentsArray",
      "outputs": [
        {
          "internalType": "string",
          "name": "",
          "type": "string"
        }
      ],
      "stateMutability": "view",
      "type": "function"
    },
    {
      "inputs": [
        {
          "internalType": "string",
          "name": "documentHash",
          "type": "string"
        }
      ],
      "name": "getDocument",
      "outputs": [
        {
          "internalType": "string",
          "name": "",
          "type": "string"
        }
      ],
      "stateMutability": "view",
      "type": "function"
    },
    {
      "inputs": [
        {
          "internalType": "bytes32",
          "name": "role",
          "type": "bytes32"
        }
      ],
      "name": "getRoleAdmin",
      "outputs": [
        {
          "internalType": "bytes32",
          "name": "",
          "type": "bytes32"
        }
      ],
      "stateMutability": "view",
      "type": "function"
    },
    {
      "inputs": [
        {
          "internalType": "address",
          "name": "account",
          "type": "address"
        }
      ],
      "name": "grantIssuerRole",
      "outputs": [],
      "stateMutability": "nonpayable",
      "type": "function"
    },
    {
      "inputs": [
        {
          "internalType": "bytes32",
          "name": "role",
          "type": "bytes32"
        },
        {
          "internalType": "address",
          "name": "account",
          "type": "address"
        }
      ],
      "name": "grantRole",
      "outputs": [],
      "stateMutability": "nonpayable",
      "type": "function"
    },
    {
      "inputs": [
        {
          "internalType": "address",
          "name": "account",
          "type": "address"
        }
      ],
      "name": "grantVerifierRole",
      "outputs": [],
      "stateMutability": "nonpayable",
      "type": "function"
    },
    {
      "inputs": [
        {
          "internalType": "bytes32",
          "name": "role",
          "type": "bytes32"
        },
        {
          "internalType": "address",
          "name": "account",
          "type": "address"
        }
      ],
      "name": "hasRole",
      "outputs": [
        {
          "internalType": "bool",
          "name": "",
          "type": "bool"
        }
      ],
      "stateMutability": "view",
      "type": "function"
    },
    {
      "inputs": [
        {
          "internalType": "string",
          "name": "documentHash",
          "type": "string"
        },
        {
          "internalType": "string",
          "name": "imageHash",
          "type": "string"
        }
      ],
      "name": "registerDocument",
      "outputs": [],
      "stateMutability": "nonpayable",
      "type": "function"
    },
    {
      "inputs": [
        {
          "internalType": "bytes32",
          "name": "role",
          "type": "bytes32"
        },
        {
          "internalType": "address",
          "name": "callerConfirmation",
          "type": "address"
        }
      ],
      "name": "renounceRole",
      "outputs": [],
      "stateMutability": "nonpayable",
      "type": "function"
    },
    {
      "inputs": [
        {
          "internalType": "address",
          "name": "account",
          "type": "address"
        }
      ],
      "name": "revokeIssuerRole",
      "outputs": [],
      "stateMutability": "nonpayable",
      "type": "function"
    },
    {
      "inputs": [
        {
          "internalType": "bytes32",
          "name": "role",
          "type": "bytes32"
        },
        {
          "internalType": "address",
          "name": "account",
          "type": "address"
        }
      ],
      "name": "revokeRole",
      "outputs": [],
      "stateMutability": "nonpayable",
      "type": "function"
    },
    {
      "inputs": [
        {
          "internalType": "address",
          "name": "account",
          "type": "address"
        }
      ],
      "name": "revokeVerifierRole",
      "outputs": [],
      "stateMutability": "nonpayable",
      "type": "function"
    },
    {
      "inputs": [
        {
          "internalType": "bytes4",
          "name": "interfaceId",
          "type": "bytes4"
        }
      ],
      "name": "supportsInterface",
      "outputs": [
        {
          "internalType": "bool",
          "name": "",
          "type": "bool"
        }
      ],
      "stateMutability": "view",
      "type": "function"
    }
  ],
  "bytecode": "0x60806040523480156200001157600080fd5b5060405162001ecb38038062001ecb8339818101604052810190620000379190620003d4565b6200004c6000801b836200006760201b60201c565b5080600190816200005e919062000685565b5050506200076c565b60006200007b83836200016a60201b60201c565b6200015f57600160008085815260200190815260200160002060000160008473ffffffffffffffffffffffffffffffffffffffff1673ffffffffffffffffffffffffffffffffffffffff16815260200190815260200160002060006101000a81548160ff021916908315150217905550620000fb620001d460201b60201c565b73ffffffffffffffffffffffffffffffffffffffff168273ffffffffffffffffffffffffffffffffffffffff16847f2f8788117e7eff1d82e926ec794901d17c78024a50270940304540a733656f0d60405160405180910390a46001905062000164565b600090505b92915050565b600080600084815260200190815260200160002060000160008373ffffffffffffffffffffffffffffffffffffffff1673ffffffffffffffffffffffffffffffffffffffff16815260200190815260200160002060009054906101000a900460ff16905092915050565b600033905090565b6000604051905090565b600080fd5b600080fd5b600073ffffffffffffffffffffffffffffffffffffffff82169050919050565b60006200021d82620001f0565b9050919050565b6200022f8162000210565b81146200023b57600080fd5b50565b6000815190506200024f8162000224565b92915050565b600080fd5b600080fd5b6000601f19601f8301169050919050565b7f4e487b7100000000000000000000000000000000000000000000000000000000600052604160045260246000fd5b620002aa826200025f565b810181811067ffffffffffffffff82111715620002cc57620002cb62000270565b5b80604052505050565b6000620002e1620001dc565b9050620002ef82826200029f565b919050565b600067ffffffffffffffff82111562000312576200031162000270565b5b6200031d826200025f565b9050602081019050919050565b60005b838110156200034a5780820151818401526020810190506200032d565b60008484015250505050565b60006200036d6200036784620002f4565b620002d5565b9050828152602081018484840111156200038c576200038b6200025a565b5b620003998482856200032a565b509392505050565b600082601f830112620003b957620003b862000255565b5b8151620003cb84826020860162000356565b91505092915050565b60008060408385031215620003ee57620003ed620001e6565b5b6000620003fe858286016200023e565b925050602083015167ffffffffffffffff811115620004225762000421620001eb565b5b6200043085828601620003a1565b9150509250929050565b600081519050919050565b7f4e487b7100000000000000000000000000000000000000000000000000000000600052602260045260246000fd5b600060028204905060018216806200048d57607f821691505b602082108103620004a357620004a262000445565b5b50919050565b60008190508160005260206000209050919050565b60006020601f8301049050919050565b600082821b905092915050565b6000600883026200050d7fffffffffffffffffffffffffffffffffffffffffffffffffffffffffffffffff82620004ce565b620005198683620004ce565b95508019841693508086168417925050509392505050565b6000819050919050565b6000819050919050565b600062000566620005606200055a8462000531565b6200053b565b62000531565b9050919050565b6000819050919050565b620005828362000545565b6200059a62000591826200056d565b848454620004db565b825550505050565b600090565b620005b1620005a2565b620005be81848462000577565b505050565b5b81811015620005e657620005da600082620005a7565b600181019050620005c4565b5050565b601f8211156200063557620005ff81620004a9565b6200060a84620004be565b810160208510156200061a578190505b620006326200062985620004be565b830182620005c3565b50505b505050565b600082821c905092915050565b60006200065a600019846008026200063a565b1980831691505092915050565b600062000675838362000647565b9150826002028217905092915050565b62000690826200043a565b67ffffffffffffffff811115620006ac57620006ab62000270565b5b620006b8825462000474565b620006c5828285620005ea565b600060209050601f831160018114620006fd5760008415620006e8578287015190505b620006f4858262000667565b86555062000764565b601f1984166200070d86620004a9565b60005b82811015620007375784890151825560018201915060208501945060208101905062000710565b8683101562000757578489015162000753601f89168262000647565b8355505b6001600288020188555050505b505050505050565b61174f806200077c6000396000f3fe608060405234801561001057600080fd5b50600436106101215760003560e01c80636c0360eb116100ad578063a3669aef11610071578063a3669aef1461032c578063a5c8d38d14610348578063ce45a82314610364578063d547741f14610394578063e7705db6146103b057610121565b80636c0360eb146102725780637ccb6a641461029057806382aefa24146102c057806391d14854146102de578063a217fddf1461030e57610121565b80631c49ea91116100f45780631c49ea91146101be578063248a9ca3146101da5780632f2ff15d1461020a57806336568abe146102265780633f5a084d1461024257610121565b806301ffc9a7146101265780630337c06114610156578063140802ee14610172578063151839e51461018e575b600080fd5b610140600480360381019061013b9190610dd9565b6103ce565b60405161014d9190610e21565b60405180910390f35b610170600480360381019061016b9190610e9a565b6103e0565b005b61018c60048036038101906101879190610e9a565b61041b565b005b6101a860048036038101906101a3919061100d565b610456565b6040516101b591906110d5565b60405180910390f35b6101d860048036038101906101d391906110f7565b61050c565b005b6101f460048036038101906101ef91906111a5565b610618565b60405161020191906111e1565b60405180910390f35b610224600480360381019061021f91906111fc565b610637565b005b610240600480360381019061023b91906111fc565b610659565b005b61025c6004803603810190610257919061100d565b6106d4565b6040516102699190610e21565b60405180910390f35b61027a61070a565b60405161028791906110d5565b60405180910390f35b6102aa60048036038101906102a5919061100d565b610798565b6040516102b791906110d5565b60405180910390f35b6102c86108b5565b6040516102d591906111e1565b60405180910390f35b6102f860048036038101906102f391906111fc565b6108d9565b6040516103059190610e21565b60405180910390f35b610316610943565b60405161032391906111e1565b60405180910390f35b61034660048036038101906103419190610e9a565b61094a565b005b610362600480360381019061035d9190610e9a565b610985565b005b61037e60048036038101906103799190610e9a565b6109c0565b60405161038b9190610e21565b60405180910390f35b6103ae60048036038101906103a991906111fc565b6109f3565b005b6103b8610a15565b6040516103c591906111e1565b60405180910390f35b60006103d982610a39565b9050919050565b6000801b6103ed81610ab3565b6104177f0ce23c3e399818cfee81a7ab0880f714e53d7672b08df0fa62f2843416e1ea0983610637565b5050565b6000801b61042881610ab3565b6104527f114e74f6ea3bd819998f78687bfcb11b140da08e9b7d222fa9c1f1ba1f2aa122836109f3565b5050565b600281805160208101820180518482526020830160208501208183528095505050505050600091509050805461048b9061126b565b80601f01602080910402602001604051908101604052809291908181526020018280546104b79061126b565b80156105045780601f106104d957610100808354040283529160200191610504565b820191906000526020600020905b8154815290600101906020018083116104e757829003601f168201915b505050505081565b7f114e74f6ea3bd819998f78687bfcb11b140da08e9b7d222fa9c1f1ba1f2aa12261053681610ab3565b600083511161057a576040517f08c379a00000000000000000000000000000000000000000000000000000000081526004016105719061130e565b60405180910390fd5b600060028460405161058c919061136a565b908152602001604051809103902080546105a59061126b565b9050146105e7576040517f08c379a00000000000000000000000000000000000000000000000000000000081526004016105de906113cd565b60405180910390fd5b816002846040516105f8919061136a565b9081526020016040518091039020908161061291906115a3565b50505050565b6000806000838152602001908152602001600020600101549050919050565b61064082610618565b61064981610ab3565b6106538383610ac7565b50505050565b610661610bb8565b73ffffffffffffffffffffffffffffffffffffffff168173ffffffffffffffffffffffffffffffffffffffff16146106c5576040517f6697b23200000000000000000000000000000000000000000000000000000000815260040160405180910390fd5b6106cf8282610bc0565b505050565b6000806002836040516106e7919061136a565b908152602001604051809103902080546107009061126b565b9050119050919050565b600180546107179061126b565b80601f01602080910402602001604051908101604052809291908181526020018280546107439061126b565b80156107905780601f1061076557610100808354040283529160200191610790565b820191906000526020600020905b81548152906001019060200180831161077357829003601f168201915b505050505081565b606060006002836040516107ac919061136a565b908152602001604051809103902080546107c59061126b565b905011610807576040517f08c379a00000000000000000000000000000000000000000000000000000000081526004016107fe906116c1565b60405180910390fd5b600282604051610817919061136a565b908152602001604051809103902080546108309061126b565b80601f016020809104026020016040519081016040528092919081815260200182805461085c9061126b565b80156108a95780601f1061087e576101008083540402835291602001916108a9565b820191906000526020600020905b81548152906001019060200180831161088c57829003601f168201915b50505050509050919050565b7f114e74f6ea3bd819998f78687bfcb11b140da08e9b7d222fa9c1f1ba1f2aa12281565b600080600084815260200190815260200160002060000160008373ffffffffffffffffffffffffffffffffffffffff1673ffffffffffffffffffffffffffffffffffffffff16815260200190815260200160002060009054906101000a900460ff16905092915050565b6000801b81565b6000801b61095781610ab3565b6109817f0ce23c3e399818cfee81a7ab0880f714e53d7672b08df0fa62f2843416e1ea09836109f3565b5050565b6000801b61099281610ab3565b6109bc7f114e74f6ea3bd819998f78687bfcb11b140da08e9b7d222fa9c1f1ba1f2aa12283610637565b5050565b60006109ec7f0ce23c3e399818cfee81a7ab0880f714e53d7672b08df0fa62f2843416e1ea09836108d9565b9050919050565b6109fc82610618565b610a0581610ab3565b610a0f8383610bc0565b50505050565b7f0ce23c3e399818cfee81a7ab0880f714e53d7672b08df0fa62f2843416e1ea0981565b60007f7965db0b000000000000000000000000000000000000000000000000000000007bffffffffffffffffffffffffffffffffffffffffffffffffffffffff1916827bffffffffffffffffffffffffffffffffffffffffffffffffffffffff19161480610aac5750610aab82610cb2565b5b9050919050565b610ac481610abf610bb8565b610d1c565b50565b6000610ad383836108d9565b610bad57600160008085815260200190815260200160002060000160008473ffffffffffffffffffffffffffffffffffffffff1673ffffffffffffffffffffffffffffffffffffffff16815260200190815260200160002060006101000a81548160ff021916908315150217905550610b4a610bb8565b73ffffffffffffffffffffffffffffffffffffffff168273ffffffffffffffffffffffffffffffffffffffff16847f2f8788117e7eff1d82e926ec794901d17c78024a50270940304540a733656f0d60405160405180910390a460019050610bb2565b600090505b92915050565b600033905090565b6000610bcc83836108d9565b15610ca757600080600085815260200190815260200160002060000160008473ffffffffffffffffffffffffffffffffffffffff1673ffffffffffffffffffffffffffffffffffffffff16815260200190815260200160002060006101000a81548160ff021916908315150217905550610c44610bb8565b73ffffffffffffffffffffffffffffffffffffffff168273ffffffffffffffffffffffffffffffffffffffff16847ff6391f5c32d9c69d2a47ea670b442974b53935d1edc7fd64eb21e047a839171b60405160405180910390a460019050610cac565b600090505b92915050565b60007f01ffc9a7000000000000000000000000000000000000000000000000000000007bffffffffffffffffffffffffffffffffffffffffffffffffffffffff1916827bffffffffffffffffffffffffffffffffffffffffffffffffffffffff1916149050919050565b610d2682826108d9565b610d695780826040517fe2517d3f000000000000000000000000000000000000000000000000000000008152600401610d609291906116f0565b60405180910390fd5b5050565b6000604051905090565b600080fd5b600080fd5b60007fffffffff0000000000000000000000000000000000000000000000000000000082169050919050565b610db681610d81565b8114610dc157600080fd5b50565b600081359050610dd381610dad565b92915050565b600060208284031215610def57610dee610d77565b5b6000610dfd84828501610dc4565b91505092915050565b60008115159050919050565b610e1b81610e06565b82525050565b6000602082019050610e366000830184610e12565b92915050565b600073ffffffffffffffffffffffffffffffffffffffff82169050919050565b6000610e6782610e3c565b9050919050565b610e7781610e5c565b8114610e8257600080fd5b50565b600081359050610e9481610e6e565b92915050565b600060208284031215610eb057610eaf610d77565b5b6000610ebe84828501610e85565b91505092915050565b600080fd5b600080fd5b6000601f19601f8301169050919050565b7f4e487b7100000000000000000000000000000000000000000000000000000000600052604160045260246000fd5b610f1a82610ed1565b810181811067ffffffffffffffff82111715610f3957610f38610ee2565b5b80604052505050565b6000610f4c610d6d565b9050610f588282610f11565b919050565b600067ffffffffffffffff821115610f7857610f77610ee2565b5b610f8182610ed1565b9050602081019050919050565b82818337600083830152505050565b6000610fb0610fab84610f5d565b610f42565b905082815260208101848484011115610fcc57610fcb610ecc565b5b610fd7848285610f8e565b509392505050565b600082601f830112610ff457610ff3610ec7565b5b8135611004848260208601610f9d565b91505092915050565b60006020828403121561102357611022610d77565b5b600082013567ffffffffffffffff81111561104157611040610d7c565b5b61104d84828501610fdf565b91505092915050565b600081519050919050565b600082825260208201905092915050565b60005b83811015611090578082015181840152602081019050611075565b60008484015250505050565b60006110a782611056565b6110b18185611061565b93506110c1818560208601611072565b6110ca81610ed1565b840191505092915050565b600060208201905081810360008301526110ef818461109c565b905092915050565b6000806040838503121561110e5761110d610d77565b5b600083013567ffffffffffffffff81111561112c5761112b610d7c565b5b61113885828601610fdf565b925050602083013567ffffffffffffffff81111561115957611158610d7c565b5b61116585828601610fdf565b9150509250929050565b6000819050919050565b6111828161116f565b811461118d57600080fd5b50565b60008135905061119f81611179565b92915050565b6000602082840312156111bb576111ba610d77565b5b60006111c984828501611190565b91505092915050565b6111db8161116f565b82525050565b60006020820190506111f660008301846111d2565b92915050565b6000806040838503121561121357611212610d77565b5b600061122185828601611190565b925050602061123285828601610e85565b9150509250929050565b7f4e487b7100000000000000000000000000000000000000000000000000000000600052602260045260246000fd5b6000600282049050600182168061128357607f821691505b6020821081036112965761129561123c565b5b50919050565b7f4c65206861736820647520646f63756d656e74206e652070657574207061732060008201527f7265737465722076696465000000000000000000000000000000000000000000602082015250565b60006112f8602b83611061565b91506113038261129c565b604082019050919050565b60006020820190508181036000830152611327816112eb565b9050919050565b600081905092915050565b600061134482611056565b61134e818561132e565b935061135e818560208601611072565b80840191505092915050565b60006113768284611339565b915081905092915050565b7f4c6520646f63756d656e74206578697374650000000000000000000000000000600082015250565b60006113b7601283611061565b91506113c282611381565b602082019050919050565b600060208201905081810360008301526113e6816113aa565b9050919050565b60008190508160005260206000209050919050565b60006020601f8301049050919050565b600082821b905092915050565b60006008830261144f7fffffffffffffffffffffffffffffffffffffffffffffffffffffffffffffffff82611412565b6114598683611412565b95508019841693508086168417925050509392505050565b6000819050919050565b6000819050919050565b60006114a061149b61149684611471565b61147b565b611471565b9050919050565b6000819050919050565b6114ba83611485565b6114ce6114c6826114a7565b84845461141f565b825550505050565b600090565b6114e36114d6565b6114ee8184846114b1565b505050565b5b81811015611512576115076000826114db565b6001810190506114f4565b5050565b601f82111561155757611528816113ed565b61153184611402565b81016020851015611540578190505b61155461154c85611402565b8301826114f3565b50505b505050565b600082821c905092915050565b600061157a6000198460080261155c565b1980831691505092915050565b60006115938383611569565b9150826002028217905092915050565b6115ac82611056565b67ffffffffffffffff8111156115c5576115c4610ee2565b5b6115cf825461126b565b6115da828285611516565b600060209050601f83116001811461160d57600084156115fb578287015190505b6116058582611587565b86555061166d565b601f19841661161b866113ed565b60005b828110156116435784890151825560018201915060208501945060208101905061161e565b86831015611660578489015161165c601f891682611569565b8355505b6001600288020188555050505b505050505050565b7f4c6520646f63756d656e74206e27657869737465207061730000000000000000600082015250565b60006116ab601883611061565b91506116b682611675565b602082019050919050565b600060208201905081810360008301526116da8161169e565b9050919050565b6116ea81610e5c565b82525050565b600060408201905061170560008301856116e1565b61171260208301846111d2565b939250505056fea264697066735822122002a14160bdbee07f7f8b4ef52ac77b9838cb0c6f9e96346af1c5b210315994a764736f6c63430008140033",
  "linkReferences": {},
  "deployedLinkReferences": {}
}